:100000000000032051020000CD020000D5020000D4
:10001000FD020000050300000D03000000000000C9
:10002000000000000000000000000000914C0000F3
:100030001D03000000000000A14E0000094F000059
:10004000A1800000AD800000B9800000C5800000E4
:10005000D1800000DD800000E9800000F580000014
:10006000018100000D810000198100002581000040
:10007000318100003D810000498100005581000070
:10008000618100006D8100007981000085810000A0
:10009000918100009D810000A9810000B5810000D0
:1000A000C1810000CD810000D9810000E581000000
:1000B000F1810000FD81000009820000158200002E
:1000C000218200002D82000039820000458200005C
:1000D000518200005D82000069820000758200008C
:1000E000818200008D82000099820000A5820000BC
:1000F000B1820000BD820000C9820000D5820000EC
:10010000E1820000ED820000F9820000058300001A
:10011000118300002D9400001D830000298300003E
:1001200035830000418300004D83000059830000A7
:1001300065830000ED090000718300007D830000ED
:100140008983000095830000A1830000AD83000037
:10015000B9830000C5830000D1830000DD83000067
:10016000E9830000F5830000018400000D84000095
:100170001984000025840000318400003D840000C3
:100180004984000055840000AD3100004131000079
:10019000653100008931000030DB000000000020E4
:1001A0006401000030DB00000000FF1F00000000C1
:1001B00030DB0000000000140000000000020020FE
:1001C000540B00000000FF1F00000000000000149E
:1001D0000000000080B489B000AFF860B9607A60B8
:1001E000BB68FB61FB68BB6100237B610AE0FB69C4
:1001F0001A1DFA61BA69111DB96112681A607B692A
:1002000004337B617A697B689A42F0D300BF24375C
:10021000BD465DF8047B704780B485B000AF786060
:1002200039607B68FB600023BB6007E0FB681A1D38
:10023000FA6000221A60BB680433BB60BA683B688E
:100240009A42F3D300BF1437BD465DF8047B704774
:1002500080B584B000AF72B600F01CFC184BFB6098
:1002600013E0FB681A1DFA601B68BB60FB681A1D6F
:10027000FA601B687B60FB681A1DFA601B683B60B4
:100280003A687968B868FFF7A5FFFB680D4A9342A2
:10029000E7D30DE0FB681A1DFA601B687B60FB6802
:1002A0001A1DFA601B683B6039687868FFF7B4FF75
:1002B000FB68054A9342EDD362B607F0C7FCFEE740
:1002C00098010000BC010000D401000080B400AF20
:1002D000FEE700BF80B400AF1EF0040F0CBFEFF3C9
:1002E0000880EFF309808169004A104765800000AB
:1002F00000BFBD465DF8047B704700BF80B400AF0F
:10030000FEE700BF80B400AFFEE700BF80B400AFDF
:10031000FEE700BF80B400AFFEE700BF80B400AFCF
:10032000FEE700BF80B400AFFEE700BF80B400AFBF
:10033000FEE700BF80B400AFFEE700BFFFFFFFFF96
:10034000FFFFFFFFFFFFFFFFFFFFFFFFFFFFFFFFBD
:10035000FFFFFFFFFFFFFFFFFFFFFFFFFFFFFFFFAD
:10036000FFFFFFFFFFFFFFFFFFFFFFFFFFFFFFFF9D
:10037000FFFFFFFFFFFFFFFFFFFFFFFFFFFFFFFF8D
:10038000FFFFFFFFFFFFFFFFFFFFFFFFFFFFFFFF7D
:10039000FFFFFFFFFFFFFFFFFFFFFFFFFFFFFFFF6D
:1003A000FFFFFFFFFFFFFFFFFFFFFFFFFFFFFFFF5D
:1003B000FFFFFFFFFFFFFFFFFFFFFFFFFFFFFFFF4D
:1003C000FFFFFFFFFFFFFFFFFFFFFFFFFFFFFFFF3D
:1003D000FFFFFFFFFFFFFFFFFFFFFFFFFFFFFFFF2D
:1003E000FFFFFFFFFFFFFFFFFFFFFFFFFFFFFFFF1D
:1003F000FFFFFFFFFFFFFFFFFFFFFFFFFFFFFFFF0D
:10040000FFFFFFFFFFFFFFFFFFFFFFFFFEFFFFFFFD
:1004100080B483B000AF0346FB71094997F90730F8
:100420005B09FA7902F01F02012000FA02F241F89A
:10043000232000BF0C37BD465DF8047B704700BF2A
:1004400000E100E080B483B000AF03463960FB7187
:1004500097F90730002B0BDA0D49FB7903F00F03F6
:10046000043B3A68D2B21201D2B20B441A7609E0C8
:10047000084997F907303A68D2B21201D2B20B4458
:1004800083F8002300BF0C37BD465DF8047B70473E
:1004900000ED00E000E100E080B582B000AF03466F
:1004A000FB7197F9073013F1800F05D097F90730EA
:1004B0001846FFF7ADFF00E000BF0837BD4680BD1E
:1004C00080B586B000AFF860B9607A607B68002BB9
:1004D00006D10A4B0A4A4FF481710A4801F060FEC6
:1004E000BB689B00FA6813447B617B697A68128859
:1004F0001A8000BF1837BD4680BD00BF48C300004A
:1005000078C3000050C3000080B485B000AFF8602D
:10051000B9601346FB71FB68BA6853F8223023F4C4
:100520007022FB791B0403F4702342EA0301FB6889
:10053000BA6843F8221000BF1437BD465DF8047B4B
:10054000704700BF80B485B000AFF860B9607A60D2
:100550003B607B68002B02D10A4B01221A707B683A
:1005600040F24E42934204D07B6840F251429342A3
:1005700002D1054B01221A7000BF1437BD465DF849
:10058000047B7047280200202902002080B58AB031
:1005900000AF7860084611461A460346FB700B46CA
:1005A000BB7013467B7007F10C031822002118461C
:1005B0000BF08BFDFB783B7400237B74BB787B6175
:1005C00001233B767B1CFB6101233B620023FB6024
:1005D00007F10C031A461949194804F031F805F0DF
:1005E000C7FC034664337B6200BF164B1B78DBB24B
:1005F00083F00103DBB2002B0DD0134B1B78DBB271
:1006000083F00103DBB2002B05D005F0B1FC0246FC
:100610007B6A9A42E9D30B4B00221A700A4B1B7873
:10062000DBB2002B04D0084B00221A70012300E03B
:10063000002318462837BD4680BD00BF00020020B9
:1006400000700640290200202802002080B58AB0F0
:1006500000AFF8607B600B46FB721346BB7207F17C
:1006600010031822002118460BF02FFDFB7A3B7572
:1006700001237B75BB7ABB6101233B777B683B62BF
:100680003B6B7B6200233B6107F110031A46134961
:10069000134803F0D5FF00BF124B1B78DBB283F089
:1006A0000103DBB2002B07D00F4B1B78DBB283F0CA
:1006B0000103DBB2002BEFD10A4B00221A700A4B68
:1006C0001B78DBB2002B04D0074B00221A700123E9
:1006D00000E0002318462837BD4680BD00020020F8
:1006E00000700640290200202802002080B588B052
:1006F00002AF7860394B186800234FF47A720021FA
:1007000004F048FF0346012BF4D1354B1B78DBB2D4
:10071000002B54D0324B00221A7007F108020D232F
:100720000093134600221E212E48FFF78FFF034639
:10073000002B44D07B7A1B021AB2BB7A1BB2134344
:100740001BB29B101AB2284B1A80FB7A1B021AB2FA
:100750003B7B1BB213431BB29B101AB2224B5A8035
:100760007B7B1B021AB2BB7B1BB213431BB29B10D9
:100770001AB21D4B9A80FB7B1B021AB23B7C1BB248
:1007800013431AB2184BDA807B7C1B021AB2BB7C73
:100790001BB213431AB2144B1A81FB7C1B021AB210
:1007A0003B7D1BB213431AB20F4B5A810F4B1B6890
:1007B000002B04D00D4B1B6800210B4898470C4BB5
:1007C0001B78DBB2002B95D0094B00221A70074B27
:1007D0001B680121044898478CE700BF2C020020C9
:1007E0004102002000700640300200203C02002040
:1007F0004002002080B58AB002AF78600023BB833E
:100800003B7F43F003033B773B7F43F020033B7781
:100810007B7F022262F302037B7707F11C031A46F7
:100820000A216748FFF74CFE00233B833B7E43F0E1
:1008300003033B763B7E43F020033B767B7E022224
:1008400062F302037B7607F118031A460B215C481A
:10085000FFF736FE07F10C03184603F0F5FC594B81
:100860003B61022001F0AAF8024607F10C03194689
:10087000554803F073FC0023544A5549524803F08D
:100880009DFE544A07F1080312881A8007F10803F5
:100890001A460821504803F095F900237B7207F1AE
:1008A00008031A4609214C4803F08CF9022005F090
:1008B00035FA00232A221E214348FFF767FE1F2333
:1008C0005B221E214048FFF761FE20235C221E218F
:1008D0003D48FFF75BFE00230E221E213A48FFF73A
:1008E00055FE202321221E213748FFF74FFE1023FB
:1008F00023221E213448FFF749FE102324221E2103
:100900003148FFF743FE102325221E212E48FFF712
:100910003DFE062326221E212B48FFF737FE282303
:1009200027221E212848FFF731FE0F2328221E21EF
:100930002548FFF72BFE08232E221E212248FFF711
:1009400025FE09232D221E211F48FFF71FFE234AE3
:100950007B68136003220021012004F0A5FB0246FE
:100960001F4B1A601E4B186800236422002104F0FC
:1009700011FE002301930423009300234FF480729F
:100980001849194805F084F80A2206210C48FFF797
:10099000BBFD0A2205210A48FFF7B6FD02213D20D2
:1009A000FFF750FD3D20FFF777FD15232A221E217A
:1009B0000548FFF7EBFD00BF2037BD4680BD00BFF7
:1009C00000B0044090D003000070064045050000D0
:1009D0000002002074C3000080F00F403C020020A1
:1009E0002C0200206CC30000ED06000080B582B030
:1009F00000AF194803F01EF978607B6803F020030C
:100A0000002B06D02021144803F02CF9134B0122AF
:100A10001A707B6803F04003002B06D040210E487B
:100A200003F020F90E4B01221A700E4B1B683A4658
:100A30001146184604F024FD3B68002B07D00A4BF2
:100A40004FF080521A60BFF34F8FBFF36F8F00BF1C
:100A50000837BD4680BD00BF80F00F404002002037
:100A6000410200202C02002004ED00E080B582B09D
:100A700000AF786004F0BCF90C22054978680BF0EF
:100A800019FB04F0E3F900BF0837BD4680BD00BF85
:100A90003002002080B400AF0C4A0C4BD3F88830F1
:100AA00043F47003C2F88830094B4CF22052DA81CB
:100AB000074B4DF62812DA81054B4FF4E9721A8084
:100AC00000BFBD465DF8047B704700BF00ED00E04D
:100AD0000020054080B483B000AF964B1B78DBB29A
:100AE00003F0C003002B40F0D280924B5B79DBB265
:100AF00003F04003002B40F0AD808E4B1B78DBB23F
:100B000003F00403002B4ED18A4B1B7BDBB203F0B6
:100B10000303002B02D0012B03D006E0864B7B6041
:100B200006E04FF400437B6002E0844B7B6000BF33
:100B3000804B5B78DBB203F03003002B23D07D4B7E
:100B40001B7BDBB203F00303012B1CD0794B1B781A
:100B5000DBB203F03803302B05D0382B07D14FF42C
:100B6000C0637B800EE04FF4A0637B800AE0714B92
:100B70001B78DBB203F03803DB08202202FA03F310
:100B80007B8000BF09E06B4B1B78DBB203F03803BE
:100B9000DB08012202FA03F37B807B887A68B2FBD0
:100BA000F3F37B6002E04FF400437B60614BDB7842
:100BB000DBB203F0E003602B29D0602B06D8202B9A
:100BC00017D0402B1CD0002B0CD09DE0A02B2CD09C
:100BD000A02B02D8802B21D096E0C02B2CD0E02B6C
:100BE00031D091E07A6813469B001344DB017B60AF
:100BF0008AE07A6813469B0013441B027B6083E003
:100C00007A6813461B019B1ADB017B607CE07A68E3
:100C100013469B0013445B027B6075E07B684FF4D6
:100C2000377202FB03F37B606EE07B684FF4B762C0
:100C300002FB03F37B6067E07B6840F6950202FBF2
:100C400003F37B6060E07B6840F6713202FB03F3E4
:100C50007B6059E0374B1B79DBB29BB203F01F037B
:100C60009BB201337B807B88334AB2FBF3F37B601A
:100C7000304B5B79DBB29BB203F01F039BB218339E
:100C80007B807A887B6802FB03F37B603CE0294B26
:100C90001B78DBB203F0C003402B1AD1254B5B78E5
:100CA000DBB203F00103002B03D14FF400437B6060
:100CB0002AE0204B1B7ADBB203F00E035B08012213
:100CC00002FA03F37B807B881D4AB2FBF3F37B605F
:100CD0001AE0184B1B78DBB203F0C003802B22D143
:100CE000144B1B7BDBB203F00303002B02D0012B60
:100CF00003D006E0104B7B6006E04FF400437B60BE
:100D000002E00E4B7B6000BF0E4B03F582530433B1
:100D10001B6803F070431B0F01337A68B2FBF3F3D7
:100D2000094A136000E000BF0C37BD465DF8047B44
:100D3000704700BF00400640001BB700006CDC029B
:100D400000093D00007004400000002090B58DB007
:100D500000AF78600023FB610023FB620023BB62CD
:100D6000002387F82730002387F8263000200BF077
:100D700061FA00233B620FE03B6A03F00303002BA0
:100D800007D101223B6A02FA03F31A46FB6A1343B6
:100D9000FB623B6A01333B623B6A1F2BECDD06F0D2
:100DA0007BF906F0AFFA012006F096FA0021002048
:100DB00006F01AFA0021012006F016FA002102209E
:100DC00006F012FA0021032006F00EFA724B1B788F
:100DD000002B0ED0704B00221A7097F82730013389
:100DE00087F8273097F82730032B02D9002387F89C
:100DF000273097F82730032B00F2C58001A252F864
:100E000023F000BF150E00008D0E0000FF0E000045
:100E1000290F000006F076FA00233B6213E03B6ADC
:100E2000D8B201223B6A02FA03F31A46FB6A134066
:100E3000002B14BF01230023DBB2194606F024FA6D
:100E40003B6A01333B623B6A1F2BE8DD06F03EFA4A
:100E5000BB6ADBB20021184606F0C6F9BB6A5A1C11
:100E60004E4B1340002B03DA013B63F003030133C5
:100E7000BB62BB6ADBB20121184606F0B5F9FB6A1A
:100E80004FEAF373BB61BB69FB6281E000233B6205
:100E900014E03B6ADCB20BF0F5F90246404B13401C
:100EA000002B03DA013B63F001030133DBB2194687
:100EB000204606F0E9F93B6A01333B623B6A1F2B8F
:100EC000E7DD06F003FA00233B6214E03B6ADCB284
:100ED0000BF0D8F90246324B1340002B03DA013BEA
:100EE00063F001030133DBB21946204606F07CF9BA
:100EF0003B6A01333B623B6A032BE7DD48E006F0C7
:100F000001FA97F826305A1C87F826200121184646
:100F100006F0BAF906F0DAF997F826301F2B36D921
:100F2000002387F8263032E007F108031846FFF760
:100F30009DFDB7F90A30002B06DAB7F90A309BB2EB
:100F40005B429BB21BB27B81B7F90A30154A82FB28
:100F500003129211DB17D31A1BB2FB8206F0D2F9EF
:100F600000233B6208E03B6ADBB20121184606F031
:100F70008BF93B6A01333B62FA8A3B6A9A42F2DCA4
:100F800006F0A4F904E0002387F8273000E000BF52
:100F90004B2004F0C3FE19E742020020030000804A
:100FA000010000801F85EB5180B483B000AF7860F2
:100FB0000B46FB70FB78002B02D0044B01221A7009
:100FC00000BF0C37BD465DF8047B7047420200202D
:100FD00080B592B002AF7860002387F83F3006F00A
:100FE00039FA3848FFF706FC0023019303230093E6
:100FF00000234FF480723449344804F049FD06F070
:10100000B3FB97F83F30002B02D0012B09D011E041
:101010002F4A1021002006F08FF9012387F83F3076
:101020000CE02C4A1D21002006F086F9002387F8E9
:101030003F3003E0002387F83F3000BF06F0ACFCF0
:101040000346002B05D0244A0421702006F074F9D1
:1010500031E006F0B1FC034687F83E3097F83E30A9
:101060004B2B05D91D4A0421702006F065F922E0BA
:1010700097F83E30322B05D9194A0421702006F02A
:101080005BF918E097F83E30192B05D9154A042171
:10109000702006F051F90EE097F83E300A2B05D982
:1010A000114A0421702006F047F904E00F4A042198
:1010B000702006F041F906F0FBFA4FF4FA6004F0F4
:1010C0002DFE9CE7A90F00008CC300004D0D000011
:1010D00030C700009CC80000FCC3000034C40000FE
:1010E000E0C30000C4C30000A8C3000018C400008F
:1010F00080B582B002AF0023019302230093002346
:101100004FF480620349044804F0C2FC00BF184653
:10111000BD4680BD90C30000D10F000080B485B0F3
:1011200000AF78607B681B0C03F1804303F58E23CE
:10113000FB60FB68FA6811687A6892B2012000FAD5
:1011400002F20A431A6000BF1437BD465DF8047B03
:10115000704700BF80B584B000AF78600023FB60AB
:1011600009E00E4AFB6852F823207B689A4206D0B9
:10117000FB680133FB60FB68012BF2D900E000BF84
:10118000FB68012B05D9064B064A4621064801F0AB
:1011900007F8FB6818461037BD4680BDA8C8000098
:1011A000B8C8000024C90000DCC8000080B584B0C5
:1011B00000AF786039603B68002B05D13E4B3F4A59
:1011C0004D213F4800F0ECFF7868FFF7C3FF02466F
:1011D0003C4B53F822301846FFF7A0FF3B685B7882
:1011E00003F003023B681B799B0003F00C031343DD
:1011F000FB603B685B79042B03D0FB6843F0100372
:10120000FB603B68DB785B0103F06003FA68134323
:10121000FB603B68DB79002B03D0FB6843F0800365
:10122000FB607B68FA689A607B68DB6823F00F03D9
:10123000FB603B685B79042B06D03B685B7903F06D
:101240000303FA681343FB603B689B79002B03D0D0
:10125000FB6843F00403FB603B689B78002B03D0E2
:10126000FB6843F00803FB607B68FA68DA607B6820
:101270001B6A23F00303FB603B681B7803F0030346
:10128000FA681343FB607B68FA681A623B681B7A52
:10129000002B06D07B685B6A43F008027B685A62C9
:1012A00005E07B685B6A23F008027B685A6200BF36
:1012B0001037BD4680BD00BFF4C8000038C900002B
:1012C000DCC80000B0C8000080B582B000AF786014
:1012D0007B68002B05D1124B124A8D21124800F079
:1012E0005FFF7B6800221A707B6803225A707B685C
:1012F00001229A707B680322DA707B6801221A71DE
:101300007B6804225A717B6800229A717B680022F4
:10131000DA717B6800221A7200BF0837BD4680BDB3
:10132000F4C8000044C90000DCC8000080B586B0E5
:1013300000AF78600023FB7500233B617B681B6A6C
:1013400003F04003002B07D00123FB757B681B6A69
:1013500023F040027B681A627B685B6A43F0C0023C
:101360007B685A620AE0786800F066F8034603F08A
:101370004003002B02D001233B6108E00021786884
:1013800000F0BCF8034603F08003002BEBD07B6831
:101390001B69FB60FB7D002B05D07B681B6A43F05B
:1013A00040027B681A62786800F046F8034603F052
:1013B0004003002B01D001233B613B69002B01D08E
:1013C0003B6934E07B68DA6C7B689B6C1A447B6811
:1013D0005B6C1A447B681B6C1A447B68DB6B1A4499
:1013E0007B689B6B1344FB60FB685B0843F4004322
:1013F000FB60FA687B68DA627B68DA6E7B689B6EFA
:101400001A447B685B6E1A447B681B6E1A447B68C7
:10141000DB6D1A447B689B6D1344FB60FB685B08C3
:1014200043F40043FB60FA687B681A6300231846A4
:101430001837BD4680BD00BF80B485B000AF78606E
:101440000023FB607B681B6A03F08003002B03D042
:10145000FB6843F08003FB607B685B6A03F040033A
:10146000002B03D0FB6843F04003FB60FB68184689
:101470001437BD465DF8047B704700BF80B586B069
:1014800000AFF860B9607A60BB68012B06D9174BD2
:10149000174A40F25311174800F082FE7B68002B78
:1014A00006D1154B124A4FF4AA71124800F078FE8B
:1014B0007B681B6803F01F037B617B685B79002BF3
:1014C00003D07B6943F020037B617B681B79002B91
:1014D00003D07B6943F040037B61FB68BA6879699C
:1014E00043F8221000BF1837BD4680BD04C9000074
:1014F0005CC90000DCC80000F4C8000080B584B0FE
:1015000000AF786039603B68012B06D90C4B0D4A5F
:1015100040F269110C4800F043FE0023FB607B6839
:101520003A6853F8223003F08003002B03D0FB68A5
:1015300043F08003FB60FB6818461037BD4680BD52
:1015400004C9000074C90000DCC8000080B485B084
:1015500000AF78607B681B0C03F1804303F58E239A
:10156000FB60FB68FA6811687A6892B2012000FAA1
:1015700002F20A431A6000BF1437BD465DF8047BCF
:10158000704700BF80B485B000AF78607B681B0CEB
:1015900003F1804303F58E23FB60FB68FA68116852
:1015A0007A6892B2012000FA02F2D2430A401A602D
:1015B00000BF1437BD465DF8047B704780B483B02C
:1015C00000AF78600849084B1B6823F440227B6811
:1015D0009B0403F4402313430B6000BF0C37BD464C
:1015E0005DF8047B704700BF0070044080B483B096
:1015F00000AF78600B490B4B03F5805304331B6835
:1016000023F440327B681B0403F440331A4301F592
:10161000805304331A6000BF0C37BD465DF8047B6D
:10162000704700BF0070044080B485B000AF7860A0
:1016300039607B681B78FB73FB7B03F05F03FB73F4
:101640003B681A78FB7B1343FB737B68FA7B1A7049
:1016500000BF1437BD465DF8047B704780B485B089
:1016600000AF78600B46FB707B681B78FB73FB7BDD
:1016700023F00F03FB73FA7BFB781343FB737B6848
:10168000FA7B1A7000BF1437BD465DF8047B7047C3
:1016900080B582B000AF194B1B7BDBB203F00303B4
:1016A000012B12D0012B02D3022B1CD01EE0144BB5
:1016B0001B68002B05D1134B134AE821134800F097
:1016C0006FFD0F4B1B687B6013E0114B1B68002BF9
:1016D00005D1104B0C4AED210C4800F061FD0C4B7C
:1016E0001B687B6005E00C4B7B6002E000237B60A5
:1016F00000BF7B6818460837BD4680BD00400640E5
:10170000040D002090C90000D8C900009CC9000049
:10171000000D0020B4C90000006CDC0280B582B06E
:1017200000AFFFF7B5FF78607B68002B01D17B68C5
:101730004EE0294B1B78DBB203F03803DB08FB706B
:10174000FB787A6822FA03F37B60234B5B78DBB289
:1017500003F030031B09BB701F4B1B7BDBB203F094
:1017600003037B70BB78002B02D07B78002B02D068
:101770007B78022B2BD1FB78072B25D801A252F8BE
:1017800023F000BFA5170000A5170000A517000053
:10179000A5170000A5170000A5170000AD17000051
:1017A000BB1700007B685B097B6010E07B680B4A1D
:1017B000A2FB03231B097B6009E07B68084AA2FBAC
:1017C0000323DB087B6002E000237B6000BF7B68B3
:1017D00018460837BD4680BD00400640CDCCCCCC75
:1017E000ABAAAAAA80B400AF0C4B9B79DBB203F082
:1017F0000103002B02D10A4B1B6809E0094B1A6850
:10180000064B1B7ADBB203F00E035B0822FA03F3EC
:101810001846BD465DF8047B704700BF0040064097
:10182000040000200800002080B500AF074B9B7922
:10183000DBB203F010031B09002B03D1FFF76EFF8F
:10184000034601E0024B1B68184680BD004006407D
:101850000400002080B500AFFFF71AFF03461846CA
:1018600080BD00BF80B485B000AF78607B6849F66A
:101870009702934202D80023FB7308E07B68074A73
:10188000934202D80123FB7301E00223FB73FB7B2D
:1018900018461437BD465DF8047B704700127A0085
:1018A00080B500AF0B4B1B78DBB25BB2002B0DDABF
:1018B000094B1B68002B06D1084B094A4FF4B6713F
:1018C000084800F06DFC044B1B6800E0002318463C
:1018D00080BD00BF00500640040D002090C90000EC
:1018E000F0C900009CC9000080B582B000AF194B60
:1018F0001B6803F440239B0C022B0FD0032B1CD03E
:10190000002B1ED1FFF7CCFF0346B3F5004F02D1E9
:101910004FF4004300E000237B6015E00E4B1B6892
:10192000002B06D10D4B0E4A4FF4C0710D4800F04C
:1019300037FC094B1B687B6006E04FF47A737B60D1
:1019400002E000237B6000BF7B6818460837BD4675
:1019500080BD00BF00700440000D0020B4C900002D
:1019600008CA00009CC9000080B582B000AF114BCE
:1019700003F5805304331B6803F440331B0C012B25
:1019800008D0012B02D3032B08D00AE000F088F91D
:10199000786009E000F0EAF9786005E0064B7B60CA
:1019A00002E000237B6000BF7B6818460837BD4615
:1019B00080BD00BF00700440006CDC0280B584B0C4
:1019C00000AF0346FB71FB79132B00F28E8001A25E
:1019D00052F823F0251A0000EB1A0000451A000007
:1019E000651A0000851A0000EB1A0000A51A000015
:1019F000AD1A0000B51A0000EB1A0000EB1A000047
:101A0000BD1A0000C51A0000CD1A0000D51A00004A
:101A1000EB1A0000EB1A0000EB1A0000DD1A0000C0
:101A2000E31A000000F00AF90246344B03F5825332
:101A300004331B6803F070431B0F0133B2FBF3F355
:101A4000FB6055E000F0FAF802462C4B03F5825398
:101A500004331B6803F070631B0E0133B2FBF3F316
:101A6000FB6045E000F0EAF80246244B03F58253A0
:101A700004331B6803F470031B0D0133B2FBF3F353
:101A8000FB6035E000F0DAF802461C4B03F58253A8
:101A900004331B6803F470231B0C0133B2FBF3F314
:101AA000FB6025E0FFF760FFF86021E0FFF71CFF17
:101AB000F8601DE0FFF7F4FEF86019E000F03EF971
:101AC000F86015E000F028F9F86011E000F0E8F89F
:101AD000F8600DE000F04AF9F86009E0084BFB609F
:101AE00006E04FF47A73FB6002E00023FB6000BF66
:101AF000FB6818461037BD4680BD00BF007004402B
:101B0000006CDC0280B582B000AF78600A497B6867
:101B10005A6801F5825304331A607B681B781846B3
:101B2000FFF764FD7B685B781846FFF747FD00BF51
:101B30000837BD4680BD00BF0070044080B584B04A
:101B400000AF786039600123FB733548FFF71AFD59
:101B50007B68002B0CD13349324B03F5805304339F
:101B60001B6823F4802201F5805304331A603DE0A2
:101B70003B682D4A93421AD02B4A934203D82B4AF2
:101B800093421BD021E02A4A934209D0294A93422A
:101B90001BD1244B03F58253083309221A6017E046
:101BA000204B03F58253083302221A6010E01D4BCC
:101BB00003F58253083305221A6009E0194B03F537
:101BC0008253083300221A6002E00023FB7300BF37
:101BD0001449144B03F5805304331B6823F4E022AB
:101BE0007B681A4301F5805304331A600C48FFF7F1
:101BF000ADFC7B68B3F5E02F0DD10F4B032283F8CA
:101C000044210D4A0C4B93F84031DBB263F07F0363
:101C1000DBB282F84031FB7B18461037BD4680BDF1
:101C2000120034100070044000A24A04006CDC0270
:101C300000D8B805000E27070020074080B582B005
:101C400000AF164B9B79DBB203F00C039B083B60A3
:101C50003B68032B1AD801A252F823F0751C000030
:101C60007D1C0000851C00006D1C000000F07EF84B
:101C700078600EE000F014F878600AE0FFF7B2FD3B
:101C8000786006E0FFF704FD786002E000237B60E7
:101C900000BF7B6818460837BD4680BD004006403F
:101CA00080B582B000AF1A4B5B78DBB203F0020361
:101CB000002B06D1164B9B79DBB203F02003002BDF
:101CC00001D0002320E0FFF7AFFD78607B68002B98
:101CD00001D17B6818E00E4BDB78DBB203F06003C8
:101CE0005B09FB700A4BDB78DBB203F08003DB0996
:101CF000BB70FA78BB7807495200134431F81330AF
:101D00001A467B6803FB02F318460837BD4680BDC0
:101D10000040064020CA000080B500AF064B1B788B
:101D2000DBB203F00203002B01D1002302E0FFF736
:101D300059FD0346184680BD0040064080B582B07C
:101D400000AFFFF771FD78607B68002B08D0FFF7CC
:101D500075FF0346DA087B689A4201D37B6800E08E
:101D6000002318460837BD4680BD00BF80B582B04D
:101D700000AF184B9B79DBB203F04003002B01D17D
:101D8000002322E0FFF766FD78607B68002B06D118
:101D9000114B124A40F27E21114800F001FA0D4B1E
:101DA0001B79DBB203F01F0301337A68B2FBF3F354
:101DB0007B60084B5B79DBB203F01F0303F1180271
:101DC0007B6802FB03F37B607B6818460837BD46DF
:101DD00080BD00BF00400640C4C9000030CA0000FA
:101DE0009CC9000080B485B000AF0346FB71174B5F
:101DF0001B7BDBB203F00302FB799A4202D0012382
:101E0000FB7301E00023FB731049104B1B7BDBB21B
:101E100023F00303DAB2FB7903F00303DBB21343CD
:101E2000DBB20B73FB7B002B09D040F2DC53BB60B1
:101E300000E000BFBB685A1EBA60002BF9D1002336
:101E400018461437BD465DF8047B704700400640D5
:101E500080B485B000AF0346FB710B46BB711346DF
:101E60007B713B4B9B79DBB203F00C039B08FB605F
:101E7000374B9B79DBB203F00103FB72344B1B7AC7
:101E8000DBB203F00E035B08BB727A79BB7A9A422D
:101E90002CD0FB7A012B19D1FB68012B06D02C4BDF
:101EA0001B78DBB203F00203002B0FD0284A284B2B
:101EB0005B78DBB223F00103DBB2537000BF244B2D
:101EC0009B79DBB203F00103002BF8D12049204BB2
:101ED0001B7ADBB223F02F03DAB27B795B00DBB233
:101EE00003F00E03DBB21343DBB20B721849184B3D
:101EF0005B78DBB223F00103DAB2BB7903F00103B4
:101F0000DBB21343DBB24B701149114B1B78DBB2D0
:101F100023F00303DAB2FB791343DBB20B70FB68E7
:101F2000012B04D0FB7903F00203002B08D000BF83
:101F3000074B9B79DBB203F00102BB799A42F7D1E0
:101F4000002318461437BD465DF8047B704700BF78
:101F50000040064080B584B000AF78607B68002BFD
:101F600006D11D4B1D4A40F23E311D4800F018F9C4
:101F70000023FB737B685B7803F01F03DAB2FB7B03
:101F80001343FB73174AFB7B13711649154B5B799F
:101F9000DBB223F01F03DAB27B689B7803F01F03E8
:101FA000DBB21343DBB24B710E490E4B1B79DAB235
:101FB0007B681B781343DBB243F04003DBB20B7149
:101FC00000BF084B9B79DBB203F04003002BF8D035
:101FD00000BF1037BD4680BDD0C9000044CA000014
:101FE0009CC900000040064080B584B000AF786016
:101FF0007B681B681846FFF735FC0346FB737B685C
:102000001B7919461948FFF729FB7B6806331946E7
:102010001648FFF709FB1649154B5B78DBB223F036
:102020003C03DAB2FB7B1B01DBB203F03003DBB213
:102030001343DAB27B685B791343DBB24B707B6886
:102040005B79002B0DD0094B1B78DBB25BB2002B08
:1020500007DA00BF064B9B79DBB203F00203002BCB
:10206000F8D000BF1037BD4680BD00BF005006400D
:102070000040064080B582B000AF03463960FB7176
:102080003B68002B06D1254B254A40F2CA51254812
:1020900000F086F8244A244B5B78DBB223F002037D
:1020A000DBB25370204A204B1B78DBB203F03B03BA
:1020B000DBB263F07F03DBB2137000BF1A4B9B7976
:1020C000DBB203F01C03082BF8D1174A164B5B79DF
:1020D000DBB223F04003DBB2537100BF124B9B799C
:1020E000DBB203F02003002BF8D13868FFF732FF92
:1020F0000D4A0D4B5B79DBB243F04003DBB2537109
:1021000000BF094B9B79DBB203F02003002BF8D012
:10211000002318460837BD4680BD00BFD0C9000067
:1021200058CA00009CC900000040064080B582B03B
:1021300000AF03463A60FB710B46BB713B68002B56
:1021400006D1134B134A40F27461134800F028F88B
:10215000FB791846FFF746FEBB7939681846FFF74A
:1021600089FF0E4A0D4B1B78DBB203F03F03DBB255
:10217000137000BF094B9B79DBB203F00C039B0883
:10218000032BF7D1002318460837BD4680BD00BF9A
:10219000D0C900006CCA00009CC900000040064085
:1021A00080B586B002AFF860B9607A603B607B684A
:1021B0000093BB68FA683968024809F07DF800BEF0
:1021C000FDE700BF80CA000080B485B000AF786032
:1021D0007B681B0C03F1804303F58E23FB60FB68D7
:1021E000FA6811687A6892B2012000FA02F20A4392
:1021F0001A6000BF1437BD465DF8047B704700BF0E
:1022000080B483B000AF78600B46FB70FB78002B86
:1022100006D07B681B6823F480427B681A6005E067
:102220007B681B6843F480427B681A6000BF0C37F0
:10223000BD465DF8047B704780B483B000AF786022
:102240007B68DB6A18460C37BD465DF8047B704737
:1022500080B483B000AF786039607B683A68DA6236
:1022600000BF0C37BD465DF8047B704780B483B077
:1022700000AF786039607B681A6B3B68DB431A40BB
:102280007B681A6300BF0C37BD465DF8047B70475E
:1022900080B483B000AF78600B46FB707B681B682E
:1022A00023F00042FB78DB071A437B681A6000BF0B
:1022B0000C37BD465DF8047B704700BF80B483B027
:1022C00000AF78607B681B68DB0FDBB218460C3709
:1022D000BD465DF8047B704780B483B000AF786082
:1022E0007B681B6823F001027B681A6000BF0C3713
:1022F000BD465DF8047B704780B483B000AF786062
:102300007B681B6843F001027B681A6000BF0C37D2
:10231000BD465DF8047B704780B483B000AF786041
:102320000B46FB701346BB707B681B6823F440624E
:10233000FB78DB0203F400631A43BB789B0203F4CF
:1023400080631A437B681A6000BF0C37BD465DF896
:10235000047B704780B483B000AF78607B681B78E3
:10236000DA077B685B781B0703F0E0431A437B685E
:102370009B781B0403F47C131A437B68DB78DB0631
:1023800003F000631A437B681B799B0603F08063AC
:10239000134318460C37BD465DF8047B704700BFF9
:1023A00080B483B000AF78607B689B6B18460C37B5
:1023B000BD465DF8047B704780B584B000AF78609F
:1023C0000023FB6009E00E4AFB6852F823207B687B
:1023D0009A4206D0FB680133FB60FB68022BF2D9FE
:1023E00000E000BFFB68022B05D9064B064A9C2182
:1023F0000648FFF7D5FEFB6818461037BD4680BD7E
:1024000060CB000078CB000024CC00009CCB000007
:1024100080B588B002AFF860B9607A60BB68002B05
:1024200005D1544B544AA3215448FFF7B9FEF8682C
:10243000FFF7C2FF0246524B53F822301846FFF70F
:10244000C3FE0121F868FFF7DBFEF868FFF754FFD1
:102450000121F868FFF71CFFFB681B6823F08A4323
:1024600023F44C537B61BB689B7F9B0703F0804246
:102470007B691A43BB6893F820309B0603F08063A6
:102480001A43BB68DB7F1B0603F080731A43BB68EB
:1024900093F821301B0203F440731A43FB681A605F
:1024A000BB68197FBB685B7F1A46F86800F06CF860
:1024B000BB681978BB685A687B68F86800F08CF8CC
:1024C0000346002B05D12F4B2B4ABC212B48FFF78D
:1024D00067FEBB681B78FA6802339B0013445B6895
:1024E00023F0FE437B61BB681B781846BB689B6882
:1024F000013BDB0603F0F0427B691A43BB681B7BA0
:102500009B0603F080631A43BB685B7B5B0603F0AA
:1025100000731A43BB689B7B1B0603F080731A434E
:10252000F968831C9B000B445A60BB681978BB6830
:102530001B6900937B680122F86800F047F9BB68CB
:102540001978BB685B6900937B680222F86800F029
:102550003DF9BB681978BB689B6900937B680322CF
:10256000F86800F033F9F868FFF7B6FE00BF1837D7
:10257000BD4680BDB4CB000038CC00009CCB000031
:102580006CCB0000C4CB000080B485B000AF786095
:102590000B46FB701346BB707B681B68FB60BB7807
:1025A000012B07D1FB781B0403F47C13FA68134357
:1025B000FB6007E0FB781B0403F47C13DB43FA6841
:1025C0001340FB607B68FA681A6000BF1437BD4691
:1025D0005DF8047B704700BF80B590B000AFF86035
:1025E0007A603B600B46FB72F868FFF767FE0346B4
:1025F00083F00103DBB2002B01D0002371E07B6884
:10260000FB614FF0FF333B620023BB6300233B635E
:102610000123BB6200237B620023FB6341E00023B4
:102620007B6335E00123FB6229E03B68FA6A02FB29
:1026300003F22E49FB6B51F823302D48796B50F88B
:10264000211001FB03F3B2FBF3F3BB61FA69BB6931
:102650009A4211D3FA69BB69D31A7B613A6A7B69E2
:102660009A4209D97B693B62FB6BBB637B6B3B6323
:10267000BB697B62FB6ABB62FB6A0133FB62FB6A7C
:10268000022B02D83B6A002BCFD17B6B01337B63DB
:102690007B6B0F2B02D83B6A002BC3D1FB6B013342
:1026A000FB63FB6B032B02D83B6A002BB7D1FB7A91
:1026B000FA6802339B0013445A680E4B13403B6187
:1026C000FB7ABA6A013AD1073A691143BA6B12042C
:1026D00011433A6B0A43F96802339B000B445A607A
:1026E0007B6A18464037BD4680BD00BFC0CA0000A7
:1026F000D0CA0000F0FFFC7F80B584B000AFF86066
:102700007A603B600B46FB72F868FFF7D7FD034623
:10271000002B56D03B7E022B1ED0032B37D0012B33
:1027200000D04EE0F87AFB7AFA6802339B0013443B
:102730005B6823F4400323F470437A68920502F443
:1027400040021A433B681B039BB21A43F968831C7F
:102750009B000B445A6034E0F87AFB7AFA68023343
:102760009B0013445B6823F4401323F470637A687E
:10277000120502F440121A433B681B0203F4706313
:102780001A43F968831C9B000B445A6019E0F87ADD
:10279000FB7AFA6802339B0013445B6823F44023FE
:1027A00023F0F0037A68920402F440221A433B6853
:1027B0001B01DBB21A43F968831C9B000B445A606F
:1027C00000BF00BF1037BD4680BD00BF80B590B0D0
:1027D00002AFF8607B600B46FB721346BB72F86871
:1027E000FFF76CFD034683F00103DBB2002B01D041
:1027F000002373E04FF0FF333B6203233B630F235F
:10280000BB62384A7B68B2FBF3F337493A6B51F845
:10281000222002FB03F33549BA6A51F8222002FB59
:1028200003F39B087B62324A7B68B2FBF3F35B00E5
:10283000FB61FA693B6C9A4209D3F97ABB7A00933F
:1028400000230022F868FFF757FFFB6946E00023EA
:102850007B6334E00023FB6228E0224A7B68B2FB02
:10286000F3F321497A6B51F8222002FB03F31F494D
:10287000FA6A51F8222002FB03F39B08BB61BA6994
:102880003B6C9A420FD3BA693B6CD31A7B613A6AAC
:102890007B699A4207D97B693B627B6B3B63FB6A2E
:1028A000BB62BB697B62FB6A0133FB62FB6A0F2B75
:1028B00002D83B6A002BD0D17B6B01337B637B6BEF
:1028C000032B02D83B6A002BC4D1F97ABB7A009360
:1028D000BB6A3A6BF868FFF70FFF7B6A1846383718
:1028E000BD4680BD00286BEE10CB000020CB000061
:1028F00000CA9A3B80B58EB000AF786039603B6803
:10290000002B06D1A44BA54A40F24521A448FFF76D
:1029100047FC0023FB860023FB8300237B773B6877
:102920009B68002B01D104231DE27868FFF7E4FCCB
:102930009C497868FFF79AFC012201217868FFF72B
:10294000EBFC99497868FFF783FC3B68DB681B095F
:1029500003F00F03012202FA03F3DBB2BB7300237F
:10296000FB7300233B743B68DB68DBB203F00F03AF
:10297000DBB27B733B68DB6803F48013002B14BF6E
:1029800001230023DBB23B7307F10C031846FFF76A
:10299000E1FCB8610123FB733B68DB6803F40013BF
:1029A000002B14BF01230023DBB23B7307F10C03A0
:1029B0001846FFF7CFFC78617B7B7A6802339B0077
:1029C00013445B6803F0F043DB0EDBB20133FB74AE
:1029D0003B681B683B633B685B68FB623B689B68CA
:1029E000BB623B689B687B627B681B6803F4805317
:1029F000002B05D17B681B6803F40053002B02D029
:102A000001233B6214E07B68684A93420ED07B68E6
:102A1000674A934208D07B68664A934201D10123FA
:102A200005E04FF0FF3302E0012300E004233B62A6
:102A30007868FFF751FCFB7C082B00F28F81A1E046
:102A4000BB6A012B53D104E04FF000717868FFF7A7
:102A5000FFFB7868FFF7F0FB034603F00073002BE1
:102A6000F2D03B6B002B0AD03B6B1B781A467B697C
:102A70001A437B685A633B6B01333B6304E07A7F04
:102A80007B691A437B685A634FF000717868FFF7DF
:102A9000DFFBBB6A013BBB6220E07868FFF7CCFB41
:102AA000034603F40033002B18D0FB6A002B0AD036
:102AB0007868FFF775FC0346DAB2FB6A1A70FB6AA6
:102AC0000133FB6202E07868FFF76AFC7B6A013B36
:102AD0007B624FF400317868FFF7BAFB7B6A002B0A
:102AE000DBD14FE04FF000717868FFF7B1FB7868F9
:102AF000FFF7A2FB034603F00073002BF2D03B6B01
:102B0000002B0AD03B6B1B781A46BB691A437B68C3
:102B10005A633B6B01333B6304E07A7FBB691A4322
:102B20007B685A63BB6A013BBB624FF000717868F7
:102B3000FFF78EFB20E07868FFF77EFB034603F487
:102B40000033002B18D0FB6A002B0AD07868FFF7FF
:102B500027FC0346DAB2FB6A1A70FB6A0133FB6298
:102B600002E07868FFF71CFC7B6A013B7B624FF454
:102B700000317868FFF76CFB7A6ABB6AD21A3B6A4D
:102B80009A42D8D2BB6A002B7FF45AAFEAE0BB6A04
:102B9000022B00F2878014E0E8CB000048CC000054
:102BA0009CCB000000000A9A00000ADA00C0024034
:102BB00000D0024000C00A404FF000717868FFF773
:102BC00047FB7868FFF738FB034603F00073002BE0
:102BD000F2D03B6B002B14D03B6B1B78FB863B6B1E
:102BE00001333B63BB6A012B0DD93B6B1B789BB256
:102BF0001B029AB2FB8E1343FB863B6B01333B6394
:102C000001E07B7FFB86FA8E7B691A437B685A63FF
:102C10004FF000717868FFF71BFB0023BB6238E0C0
:102C20007868FFF709FB034603F40033002B30D02C
:102C30007868FFF7B5FB0346FB837B6A012B16D050
:102C4000FB6A002B0FD0FB8BDAB2FB6A1A70FB6AAF
:102C50000133FB62FB8B1B0A9BB2DAB2FB6A1A7070
:102C6000FB6A0133FB627B6A023B7B620CE0FB6A1E
:102C7000002B06D0FB8BDAB2FB6A1A70FB6A0133B9
:102C8000FB627B6A013B7B624FF400317868FFF79F
:102C9000DFFA7B6A002BC3D160E04FF000717868E7
:102CA000FFF7D6FA7868FFF7C7FA034603F0007318
:102CB000002BF2D03B6B002B11D03B6B1B78FB86BB
:102CC0003B6B01333B633B6B1B789BB21B029AB29D
:102CD000FB8E1343FB863B6B01333B6301E07B7F41
:102CE000FB86FA8EBB691A437B685A63BB6A023B58
:102CF000BB624FF000717868FFF7AAFA27E07868A6
:102D0000FFF79AFA034603F40033002B1FD07868CC
:102D1000FFF746FB0346FB83FB6A002B0FD0FB8BC0
:102D2000DAB2FB6A1A70FB6A0133FB62FB8B1B0A87
:102D30009BB2DAB2FB6A1A70FB6A0133FB627B6AF0
:102D4000023B7B624FF400317868FFF781FA7A6AC0
:102D5000BB6AD31A5A083B6A9A42D0D2BB6A002B8C
:102D60007FF415AF002318463837BD4680BD00BF3D
:102D700080B582B000AF786039607868FFF79EFA5E
:102D80000346002B05D0074B1B68396878689847C5
:102D900004E0054B1B6839687868984700BF08371E
:102DA000BD4680BD500200205402002080B500AF17
:102DB000094B1B68002B06D1084B094A40F25661AB
:102DC0000848FFF7EDF9044B1B6819460648FFF762
:102DD000CFFF00BF80BD00BF44020020F4CB000045
:102DE00064CC00009CCB000000C0024080B500AF66
:102DF000094B5B68002B06D1084B094A40F25E6123
:102E00000848FFF7CDF9044B5B6819460648FFF701
:102E1000AFFF00BF80BD00BF4402002004CC000013
:102E20007CCC00009CCB000000D0024080B500AFFD
:102E3000094B9B68002B06D1084B094A40F266619A
:102E40000848FFF7ADF9044B9B6819460648FFF7A1
:102E50008FFF00BF80BD00BF4402002014CC0000E3
:102E600094CC00009CCB000000C00A4090B589B013
:102E700000AF78607B68002B06D14E4B4E4A40F283
:102E800035314E48FFF78CF97B689B687A68127C75
:102E9000DA777B68DB68002B0CD17B681B68002B22
:102EA00008D07B681C687B68596800230122786819
:102EB000A0477BE07B689A687B681B7C5B011344BE
:102EC00003F5805318331B687B617B689A687B68C5
:102ED0001B7C5B01134403F580531C331B889BB29E
:102EE00003F08003002B14BF01230023FB747B68D5
:102EF000DB681A467B699B1A7B617B695B09FB6017
:102F0000FB7C002B02D0FB68FB760EE0FB68002BFD
:102F100004D0FB68DBB2013BDBB205E07B681B7DC4
:102F20005BB2DBB2013BDBB2FB76FB7E7A68527CA4
:102F300052B293420FD17B68DB7C5AB27B681B7D17
:102F40005BB29A4204D17B68DB7C5BB2FB6112E02E
:102F50000023FB610FE0FB7E7A68527C52B29B1A21
:102F6000FB61FB69002B06DA7B681B7D5BB21A46AE
:102F7000FB691344FB6197F91B207B685A747B68DB
:102F8000DB7C5BB2DAB2FB69DBB2D31ADBB25AB2DA
:102F90007B68DA747B681B68002B07D07B681C6831
:102FA0007B685968FB69FA7C7868A04700BF2437C2
:102FB000BD4690BDA4CD0000F0CE0000D0CC0000F6
:102FC00080B500AF034B1B681846FFF74FFF00BFEB
:102FD00080BD00BF5802002080B500AF034B5B6886
:102FE0001846FFF743FF00BF80BD00BF5802002016
:102FF00080B500AF034B9B681846FFF737FF00BF53
:1030000080BD00BF5802002080B500AF034BDB68D5
:103010001846FFF72BFF00BF80BD00BF58020020FD
:1030200080B500AF034B1B691846FFF71FFF00BFB9
:1030300080BD00BF5802002080B500AF034B5B6924
:103040001846FFF713FF00BF80BD00BF58020020E5
:1030500080B500AF034B9B691846FFF707FF00BF21
:1030600080BD00BF5802002080B500AF034BDB6974
:103070001846FFF7FBFE00BF80BD00BF58020020CE
:1030800080B500AF034B1B6A1846FFF7EFFE00BF89
:1030900080BD00BF5802002080B500AF034B5B6AC3
:1030A0001846FFF7E3FE00BF80BD00BF58020020B6
:1030B00080B500AF034B9B6A1846FFF7D7FE00BFF1
:1030C00080BD00BF5802002080B500AF034BDB6A13
:1030D0001846FFF7CBFE00BF80BD00BF580200209E
:1030E00080B500AF034B1B6B1846FFF7BFFE00BF58
:1030F00080BD00BF5802002080B500AF034B5B6B62
:103100001846FFF7B3FE00BF80BD00BF5802002085
:1031100080B500AF034B9B6B1846FFF7A7FE00BFBF
:1031200080BD00BF5802002080B500AF034BDB6BB1
:103130001846FFF79BFE00BF80BD00BF580200206D
:1031400080B500AF044B1B68044A1268114604485E
:10315000984700BF80BD00BF9C020020980200205D
:1031600000000C4080B500AF044B1B68044A126895
:1031700011460448984700BF80BD00BFA002002050
:103180009802002000000C4080B500AF044B1B6883
:10319000044A126811460448984700BF80BD00BF2A
:1031A000A40200209802002000000C4080B500AF6F
:1031B000044B1B68044A126811460448984700BF34
:1031C00080BD00BFA80200209802002000000C4033
:1031D00080B500AF094B1B68002B06D1084B094A8C
:1031E00040F23C510848FEF7DBFF084B1B68034ADE
:1031F000126811460648984700BF80BDAC02002007
:10320000E8D10000FCD1000028CF0000B00200206F
:103210000040024080B485B000AF78607B681B0C32
:1032200003F1804303F58E23FB60FB68FA681168A5
:103230007A6892B2012000FA02F20A431A6000BFD3
:103240001437BD465DF8047B704700BF80B584B07D
:1032500000AF78600423BB600023FB6009E00F4AE5
:10326000FB6852F823207B689A4207D0FB68013341
:10327000FB60FA68BB689A42F1D300E000BFFA68CD
:10328000BB689A4205D3064B064A61210648FEF701
:1032900087FFFB6818461037BD4680BD14D200007A
:1032A00034D20000E8D2000050D2000080B487B0D1
:1032B00000AF786039600023FB7500233B61002379
:1032C000FB607B689B6DFB60FB6843F00803FB6061
:1032D0007B685B6E3B610023FB750BE0FB7DDB00D5
:1032E0000533012202FA03F33A6913433B61FB7D84
:1032F0000133FB75FA7D7B682F498B4213D07B68C5
:103300002E498B420DD07B682D498B4207D07B68BC
:103310002C498B4201D1042306E0002304E0012361
:1033200002E0012300E004239A42D7DB7B683A697C
:103330005A667B68D3F88C303B613B6943F0B40339
:103340003B613B6803F08003002B03D03B6943F4EF
:10335000F8533B613B6803F07003002B1ED03B69C0
:1033600043F4F8133B613B6803F01003002B03D0D8
:10337000FB6843F01003FB603B6803F02003002B65
:1033800003D0FB6843F02003FB603B6803F040037D
:10339000002B03D0FB6843F04003FB607B68FA68B6
:1033A0009A657B683A69C3F88C2000BF1C37BD461C
:1033B0005DF8047B704700BF00800340009003402D
:1033C00000A0034000900B4080B485B000AF78604F
:1033D00039600023FB600023BB607B68D3F88C302E
:1033E00043F004027B68C3F88C207B685B6EBB6093
:1033F0000023FB600BE0FB68DB000533012202FACF
:1034000003F3BA681343BB60FB680133FB607B685E
:10341000464A934213D07B68454A93420DD07B685D
:10342000444A934207D07B68434A934201D1042324
:1034300006E0002304E0012302E0012300E004236E
:10344000FA689342D7D87B68BA685A667B68D3F823
:103450009830BB607B68354A934216D07B68344A0B
:1034600093420FD07B68334A934208D07B68324A3C
:10347000934202D16FF0FF0309E0002307E06FF0F1
:10348000030304E06FF0030301E06FF0FF03BA6889
:103490001340BB607B68254A934214D07B68244A62
:1034A00093420ED07B68234A934208D07B68224A1D
:1034B000934201D1FF2307E04FF0FF3304E00323E1
:1034C00002E0032300E0FF233A681340BA68134385
:1034D000BB607B68BA68C3F898207B689B6DBB6053
:1034E0003B6803F48073002B04D0BB6843F00203F5
:1034F000BB6003E0BB6823F00203BB603B6803F4DE
:103500000073002B04D0BB6843F00103BB6003E0F1
:10351000BB6823F00103BB607B68BA689A6500BF93
:103520001437BD465DF8047B704700BF0080034040
:103530000090034000A0034000900B4080B584B091
:1035400000AF786039603B68002B05D1374B384AB3
:10355000DE213848FEF724FE3B685B6803F0F00389
:10356000002B01D101235DE07868FFF76FFE024672
:10357000314B53F822301846FFF74CFE3B681B7B5B
:103580005B0103F0600343F005027B685A653B680A
:103590005B6819467868FFF789FE3B689B681946A7
:1035A0007868FFF711FF3B681B7803F007027B6820
:1035B0001A603B685B789B01DAB23B689B7E5B02DA
:1035C00003F400731A437B68C3F884203B681B7EB6
:1035D0001A467B68DA653B685B7E1A467B681A6729
:1035E0003B685A697B68DA663B689B7B9B01DAB271
:1035F0003B681B6903F03F031A437B689A667B684C
:10360000DB6FFB60FB6823F47063FB603B685B7BF4
:103610001B0203F47063FA681343FB607B68FA686B
:10362000DA67002318461037BD4680BD68D2000017
:10363000F8D2000050D2000024D2000080B582B041
:1036400000AF78607B68002B06D1174B174A40F219
:103650002F111748FEF7A4FD7B6800221A707B68C3
:1036600000225A707B6880225A607B6800229A6030
:103670007B6800221A737B6800225A737B680122E0
:103680009A737B6800221A617B6800225A617B680A
:1036900000221A767B6800225A767B6800229A768E
:1036A00000BF0837BD4680BD68D2000004D30000CB
:1036B00050D2000080B58AB000AFF860B960114602
:1036C0001A460B46FB711346BB71BB68002B06D133
:1036D000754B764A4FF4A9717548FEF761FD7B6B17
:1036E000002B06D1734B714A40F253117048FEF71C
:1036F00057FD3B6B002B06D16F4B6C4A4FF4AA7100
:103700006B48FEF74DFDFB79002B06D16B4B674AEA
:1037100040F255116648FEF743FDFB681B6803F055
:1037200007037A6B22FA03F3BB61BB79012B10D03C
:10373000022B01D0002B19D1FB681B6823F020025B
:10374000FB681A60BA693B6BB2FBF3F3013B7B6227
:103750000EE0FB681B6843F02002FB681A603B6BBD
:103760005B00BA69B2FBF3F37B6201E001232DE158
:103770007B6AB3F5803F01D3012327E1FB687A6AB6
:103780009A600023FB771BE1BB689B78642B01D90F
:1037900001231BE1BB79002B02D0BB79012B41D166
:1037A000BB681B78FA680133DB0013445B687B61FC
:1037B0007B6923F03C037B61BB685B789B001A4606
:1037C0007B6913437B617B6943F020037B61BB68AA
:1037D0001B78FA680133DB0013447A695A60BB68CE
:1037E0009B78002B02D100237B8412E0BB689B787E
:1037F0001A467B6A03FB02F3314AA2FB03235B09EF
:103800007B847A8C7B6A9A4203D37B6A9BB20133B6
:103810007B84BB681B787A8CF9680133DB000B442E
:103820009A60C7E0BB681B781946FB68254A93423B
:1038300013D0FB68244A93420DD0FB68234A93427D
:1038400007D0FB68224A934201D1042306E00023FB
:1038500004E0012302E0012300E00423994201DB9C
:103860000123B3E0BB68DB78642B01D90123ADE011
:10387000BB68DB78002B02D100233B840AE0BB68E5
:10388000DB781A467B6A03FB02F30D4AA2FB032393
:103890005B093B84BB689B78002B1BD100237B8496
:1038A00000233B8429E000BF70D200001CD300003D
:1038B00050D200007CD2000088D2000094D20000D8
:1038C0001F85EB51008003400090034000A003409F
:1038D00000900B40BB689B781A467B6A03FB02F39F
:1038E0003C4AA2FB03235B097B847A8C7B6A9A4265
:1038F00003D37B6A9BB201337B84BB681B785B007C
:10390000FA680133DB0013445B687B617B6923F059
:103910003C037B61BB685B789B001A467B69134361
:103920007B61BB681B785B00FA680133DB001344E2
:103930007A695A60BB681B785B000133FA6801330F
:10394000DB0013445B687B617B6923F03C037B6194
:10395000BB685B789B001A467B6913437B61BB683D
:103960001B785B000133FA680133DB0013447A698A
:103970005A60FB685A6EBB681B78DB00012101FAB4
:1039800003F31A43FB685A66BB681B785B003A8CEA
:10399000F9680133DB000B449A60BB681B785B005D
:1039A0000133398C7A8C0A441146FA680133DB0002
:1039B00013449960BB680433BB60FB7F0133FB7722
:1039C000FA7FFB799A42FFF4DFAE002318462837CE
:1039D000BD4680BD1F85EB5180B485B000AF7860D7
:1039E000084611461A460346FB700B46BB70134649
:1039F0007B700023BB817B689B687B81BB78002B3D
:103A000002D0BB78012B19D17B897A7802FB03F3B2
:103A10002F4A82FB03125211DB17D31AFB81FA895A
:103A20007B899A4202D37B890133FB81FB78FA8937
:103A300079680133DB000B449A6043E0FA787B68D5
:103A400024498B4213D07B6823498B420DD07B687D
:103A500022498B4207D07B6821498B4201D1042344
:103A600006E0002304E0012302E0012300E0042338
:103A70009A4226DA7B897A7802FB03F3144A82FBA6
:103A800003125211DB17D31AFB81FB785B007A68B3
:103A90000133DB0013449B68BB81FA897B899A421E
:103AA00002D37B890133FB81FB785B000133B98949
:103AB000FA890A4411467A680133DB00134499609D
:103AC00000E000BF1437BD465DF8047B704700BFBF
:103AD0001F85EB51008003400090034000A003408D
:103AE00000900B4080B485B000AF78600B46FB704F
:103AF0001346BB70FB787A680133DB0013445B68C4
:103B0000FB60FB6823F00C03FB60BB789B0003F0B9
:103B10000C03FA681343FB60FB787A680133DB001F
:103B20001344FA685A6000BF1437BD465DF8047B41
:103B3000704700BF80B485B000AFF860B96013462D
:103B4000FB71FB79002B05D10122BB689A40FB6811
:103B50009A6004E00122BB689A40FB685A6000BF8B
:103B60001437BD465DF8047B704700BF80B584B054
:103B700000AF78600023FB6009E00E4AFB6852F852
:103B800023207B689A4206D0FB680133FB60FB6808
:103B9000042BF2D900E000BFFB68042B05D9064BCB
:103BA000064A44210648FEF7FBFAFB681846103720
:103BB000BD4680BD40D3000054D3000098D3000020
:103BC00078D3000080B584B000AFF860B9607A6047
:103BD0007B68002B05D1144B144A4B211448FEF787
:103BE000DFFA7B681B78002B0AD1FB685A69012138
:103BF000BB6801FA03F3DB431A40FB685A610FE02C
:103C00007B685B781A46B968F868FFF793FFFB6832
:103C10005A690121BB6801FA03F31A43FB685A6130
:103C200000BF1037BD4680BD90D30000ACD300006C
:103C300078D3000080B584B000AF78607868FFF773
:103C400095FF0346FB73FB7B054A52F82330BB60AC
:103C5000BB68D3F8A03018461037BD4680BD00BF02
:103C60002CD3000080B584B000AF786039607868EC
:103C7000FFF77CFF0346FB73FB7B064A52F82330B9
:103C8000BB60BB683A68C3F8A02000BF1037BD46D0
:103C900080BD00BF2CD3000080B483B000AF0346CA
:103CA000FB71094997F907305B09FA7902F01F02A5
:103CB000012000FA02F241F8232000BF0C37BD4674
:103CC0005DF8047B704700BF00E100E080B485B080
:103CD00000AF78607B681B0C03F1804303F58E23F3
:103CE000FB60FB68FA6811687A6892B2012000FAFA
:103CF00002F20A431A6000BF1437BD465DF8047B28
:103D0000704700BF80B582B000AF0346FB7197F9E2
:103D1000073013F1800F05D097F907301846FFF7E9
:103D2000BBFF00E000BF0837BD4680BD80B483B054
:103D300000AF786039603B6803F48053002B0BD0F0
:103D40007B689B79DBB25AB23B681B0A5BB21343B8
:103D50005BB2DAB27B689A713B6803F48043002B54
:103D60000BD07B689B79DBB25AB23B681B0A5BB213
:103D700013435BB2DAB27B689A713B68DAB27B6854
:103D8000DA7000BF0C37BD465DF8047B704700BF9A
:103D900080B584B000AF78600023FB6009E00E4A74
:103DA000FB6852F823207B689A4206D0FB680133F7
:103DB000FB60FB68022BF2D900E000BFFB68022B1E
:103DC00005D9064B064AB5210648FEF7E9F9FB6816
:103DD00018461037BD4680BD3CD4000058D40000C2
:103DE00020D500007CD40000B0B586B000AFF860EC
:103DF000B9607A6000237B617B685B79FB74BA6889
:103E00007B6814461D460FCD0FC495E8030084E877
:103E100003007B685A69BB689A61BB681B7B002BF7
:103E200005D07B685B79012B01D10023FB74BB6853
:103E300001221A7745F21201F868FFF777FFBB6895
:103E40001B6803F00203002B08D0BB681B79FA7CC7
:103E50001946F86800F012FB786107E0BB681B792F
:103E6000FA7C1946F86800F0D7FA78617B69184641
:103E70001837BD46B0BD00BF80B485B000AF7860D4
:103E800039600023FB603B6803F01003002B06D071
:103E90007B681022DA7040F24F43FB6007E03B681A
:103EA00003F00103002B02D040F24E43FB60FB689D
:103EB00018461437BD465DF8047B704780B588B05E
:103EC00000AFF860B9607A600023FB61FB68DB78C3
:103ED000DBB2BB617B6800221A700023BB75BB6834
:103EE0001B7F032B03D1BB685B69002B07D0BB682A
:103EF0001B7F052B05D1BB685B69012B01D1012319
:103F000000E00023FB75FB7D03F00103FB75BB7D27
:103F1000DBB20133DBB2BB75B969F868FFF7ACFF00
:103F2000F861FB6940F24E42934204D1FB7D002BC5
:103F300001D00023FB61BB681B7F012B1BD1BB6938
:103F400003F00103002B03D040F25143FB6112E068
:103F5000BB681B7B002B03D0BB6802221A770AE0E8
:103F6000BB685B79002B03D1BB6803221A7702E0A0
:103F7000BB6804221A77FB69002B01D0FB69C1E002
:103F8000BB681B7F023B032B00F2B68001A252F8F4
:103F900023F000BFA53F00001F4000004F4000007D
:103FA00087400000BB681B7B002B10D0BB681B7BCD
:103FB000013BDAB2BB681A73BB689A68BB681B7BAB
:103FC000DB0022FA03F3DAB2FB681A7196E0BB68F1
:103FD0005B79002B17D1BB6803221A77BB685B693A
:103FE000002B00F08B80BB681B691A78FB681A7184
:103FF000BB681B695A1CBB681A61BB685B695A1EA7
:10400000BB685A617AE0BB681B7901221946F868DF
:1040100000F034FAF861BB6804221A776EE0BB68DE
:104020005B69002B0FD0BB681B691A78FB681A719B
:10403000BB681B695A1CBB681A61BB685B695A1E66
:10404000BB685A615DE07B6801221A7059E0FB6829
:104050009B78DBB223F01803DAB2FB689A70BB6876
:104060005B69012B07D1FB689B78DBB243F0080347
:10407000DAB2FB689A70FB681B79DBB2BB75BB6870
:1040800005221A773DE0BB685B69591EBA68516129
:10409000002B35D0BB685B69002B15D17B680122F2
:1040A0001A70BB681B6803F00403002B04D1F86886
:1040B00000F032FAF86107E0FB689B78DBB243F06E
:1040C0001003DAB2FB689A70BB685B69012B07D1F9
:1040D000FB689B78DBB243F00803DAB2FB689A70A6
:1040E000BB681B69FA681279D2B21A70BB681B6987
:1040F0005A1CBB681A6103E000BF02E000BF00E089
:1041000000BFFB6918462037BD4680BD80B582B030
:1041100000AF786039607B68DB78DBB203F01003B6
:10412000002B06D17B689B78DBB203F02003002BC9
:1041300005D0084B1B6839687868984704E0064B3F
:104140001B68396878689847BFF34F8F00BF0837FE
:10415000BD4680BDC0020020C402002080B586B0EC
:1041600000AFF860B9607A60BB68002B02D07B6852
:10417000002B06D1304B314A4FF4ED713048FEF739
:104180000FF8F868FFF704FE02462E4B53F8223072
:104190001846FFF79BFDFB6800221A70FB6800229F
:1041A0005A70FB6800229A70FB68FF22DA70FB6885
:1041B00000225A71FB6850229A71FB680022DA7162
:1041C000FB689B78DBB203F07F03DAB2FB689A707E
:1041D00045F21201F868FFF7A9FDBB685B687A68D1
:1041E0001946F86800F0A8F8FB689B79FB75FB7D21
:1041F00003F07F03FB75BB685B78DB01DAB2FB7D04
:104200001343FB75FB7D23F00F03FB75BB681B7A23
:1042100003F00F03DAB2FB7D1343FB75FB68FA7DF5
:104220009A71BB681B78DB01DAB2FB689A7000BF39
:104230001837BD4680BD00BF94D4000030D50000C3
:104240007CD400004CD4000080B582B000AF786010
:104250007B68002B06D10B4B0B4A40F223210B4805
:10426000FDF79EFF7B680A4A5A607B6800225A70FD
:104270007B6800221A727B6801221A7000BF08371F
:10428000BD4680BDB0D4000040D500007CD4000005
:10429000A086010080B485B000AF786039603B68CB
:1042A00003F04003002B07D07B689B78DBB243F020
:1042B0004003DAB27B689A703B6803F02003002B5E
:1042C0000DD07B689B79FB73FB7B23F05003FB7362
:1042D000FB7B43F02003FB737B68FA7B9A7100BF82
:1042E0001437BD465DF8047B704700BF80B483B0CF
:1042F00000AF786039603B6803F04003002B07D0C3
:104300007B689B78DBB223F04003DAB27B689A705B
:104310003B6803F02003002B07D07B689B79DBB25E
:1043200023F07003DAB27B689A7100BF0C37BD4688
:104330005DF8047B704700BF80B48DB000AFF860BB
:10434000B9607A604FF0FF33FB620023BB62002349
:104350007B62002387F8233041E097F82330012265
:1043600002FA03F3FB61002387F822302CE097F870
:104370002230284A32F813301A46FB6903FB02F355
:104380007A68B2FBF3F3BB61BA68BB699A4203D99E
:10439000BA68BB69D31A02E0BA69BB68D31A7B61F9
:1043A0007A69FB6A9A420AD297F82330BB6297F87F
:1043B00022307B627B69FB627B69002B09D097F816
:1043C0002230013387F8223097F822303F2BCED9A4
:1043D00000E000BF97F82330013387F8233097F8C7
:1043E0002330022B02D8FB6A002BB6D1BB6ADBB2AA
:1043F0009B01DAB27B6ADBB203F03F03DBB213430B
:10440000DAB2FB685A7000BF3437BD465DF8047BF2
:10441000704700BFBCD3000080B584B000AF7860A7
:104420000B46FB701346BB700023FB60786800F0FE
:104430009FF8B860BB6803F02003002B03D040F264
:104440004C43FB6014E07B689B78DBB243F03003A5
:10445000DAB27B689A70FB785B00DAB2BB78012B2A
:1044600001D1012300E000231343DAB27B681A7103
:10447000FB6818461037BD4680BD00BF80B586B0CA
:1044800000AF78600B46FB701346BB7000237B6166
:10449000786800F06DF8F8600623FB74FB6803F0A1
:1044A0002003002B0AD07B689B78DBB203F020034B
:1044B000002B03D140F24C437B6127E07B685B78A3
:1044C000FB72FB7A03F03F03DAB27B685A707B68B9
:1044D0009B78DBB243F01403DAB27B689A707B6896
:1044E000FA7A5A7000E000BFFB7C5A1EFA74002B67
:1044F000F9D1FB785B00DAB2BB78012B01D1012343
:1045000000E000231343DAB27B681A717B69184616
:104510001837BD4680BD00BF80B485B000AF78605D
:104520000023FB604FF6FF737B817B689B78DBB2D7
:1045300023F03803DAB27B689A7000BF7B68DB78BF
:10454000DBB203F02003002B05D07B89013B7B818C
:104550007B89002BF2D17B89002B02D14FF48A6337
:10456000FB60FB6818461437BD465DF8047B704756
:1045700080B485B000AF78607B68DB78DBB2FB602D
:104580007B689B79DBB203F04003002B03D0FB6810
:1045900043F48043FB607B689B79DBB203F010033C
:1045A000002B03D0FB6843F48053FB60FB68184684
:1045B0001437BD465DF8047B704700BF80B586B0F8
:1045C00000AFF860B9607A603B60BB68002B06D131
:1045D000144B154A40F224411448FDF7E1FDF868F8
:1045E000FFF7D6FB786128220021B86807F06DFD3F
:1045F000BB687A681A62BB683A685A620C497B6980
:10460000BA6841F823200B4B0B4A1A600B4A7B69AE
:10461000134493F900301846FFF774FB00BF1837B6
:10462000BD4680BDC8D400005CD500007CD400002D
:10463000B4020020C0020020BD46000048D40000A3
:1046400080B586B000AFF860B9607A60BB68002BB7
:1046500006D1164B164A40F23B411648FDF7A0FD25
:104660007B68002B06D1144B114A40F23C411148A3
:10467000FDF796FD00237B61BB681B7F002B03D0F9
:1046800040F24C437B610CE07A68B968F868FFF748
:10469000ABFB78617B69002B03D14021F868FFF701
:1046A000F9FD7B6918461837BD4680BDC8D40000A7
:1046B0007CD500007CD40000C0D4000090B587B049
:1046C00000AF786039603B68002B06D1294B2A4A3D
:1046D00040F289412948FDF763FD3B683B610023B7
:1046E0007B617B680222DA7007F10F031A46396991
:1046F0007868FFF7E3FB7861FB7B002B02D17B69D5
:10470000002B32D03B691B6803F00403002B09D057
:104710007B6940F24E42934204D07B6940F25142A1
:1047200093420FD17B689B78DBB203F02003002B10
:1047300008D07868FFF7F0FE0346002B02D04FF454
:104740008A637B613B6900221A7740217868FFF712
:10475000CDFD3B691B6A002B07D03B691C6A3B6996
:104760005B6A7A6939697868A04700BF1C37BD4623
:1047700090BD00BFD0D400009CD500007CD40000C8
:1047800080B500AF034B1B6819460348FFF7BEFC1A
:1047900000BF80BDB40200200060064080B500AFBD
:1047A000034B5B6819460348FFF7B0FC00BF80BDB0
:1047B000B40200200070064080B500AF034B9B6838
:1047C00019460348FFF7A2FC00BF80BDB4020020D9
:1047D00000600E4080B500AF094B1B68002B06D16E
:1047E000084B094A40F22D410848FDF7D9FC084B17
:1047F0001B68034A126811460648984700BF80BDEF
:10480000080D0020FCD5000024D60000DCD50000F7
:10481000C802002000F0024080B500AF094B5B6881
:10482000002B06D1084B094A40F233410848FDF7F6
:10483000B7FC084B1B68034A526811460648984764
:1048400000BF80BD080D002010D6000040D600003B
:10485000DCD50000CC02002000F0024080B500AFA3
:10486000094B1B68002B06D1084B094A40F28451C2
:104870000848FDF795FC084B1B68034A126811466F
:104880000648984700BF80BDD002002074D90000C0
:1048900084D90000A4D60000D402002000100B40F0
:1048A00080B483B000AF7860084A084B1B6923F0DE
:1048B00004031361BFF34F8F30BFBFF36F8F00232B
:1048C00018460C37BD465DF8047B704700ED00E0EC
:1048D00080B500AF044B1B68044A126811460448B7
:1048E000984700BF80BD00BFF0020020D802002022
:1048F00000A0064080B500AFFFF7EAFF00BF80BD13
:1049000080B500AF044B1B68044A52681146044846
:10491000984700BF80BD00BFF0020020D8020020F1
:1049200000B0064080B500AFFFF7EAFF00BF80BDD2
:1049300080B500AF044B1B68044A926811460448D6
:10494000984700BF80BD00BFF0020020D8020020C1
:1049500000C0064080B500AFFFF7EAFF00BF80BD92
:1049600080B500AF044B1B68044AD2681146044866
:10497000984700BF80BD00BFF0020020D802002091
:1049800000D0064080B500AFFFF7EAFF00BF80BD52
:1049900080B500AF044B1B68044A126911460448F5
:1049A000984700BF80BD00BFF0020020D802002061
:1049B00000A00E4080B500AFFFF7EAFF00BF80BD4A
:1049C00080B500AF044B1B68044A52691146044885
:1049D000984700BF80BD00BFF0020020D802002031
:1049E00000B00E4080B500AFFFF7EAFF00BF80BD0A
:1049F00080B400AF094A0A4B1B680A49A1FB0313A4
:104A00009B09013B1360084B00221A60074B0722E9
:104A10001A6000BFBD465DF8047B704714E000E0FB
:104A200000000020D34D621018E000E010E000E02C
:104A300080B584B000AF786001F0F0F9786807F0D5
:104A400029FB0346FB6001F0F7F9FB6818461037B5
:104A5000BD4680BD80B582B000AF78607B68002B1A
:104A600006D001F0DBF9786807F01CFB01F0E4F9EF
:104A700000BF0837BD4680BD80B483B000AF78600A
:104A80007B6803F108027B685A607B684FF0FF3255
:104A90009A607B6803F108027B68DA607B6803F147
:104AA00008027B681A617B6800221A6000BF0C371D
:104AB000BD465DF8047B704780B483B000AF78607A
:104AC0007B6800221A6100BF0C37BD465DF8047B8D
:104AD000704700BF80B485B000AF786039607B68F4
:104AE0005B68FB603B68FA685A60FB689A683B68E1
:104AF0009A60FB689B683A685A60FB683A689A60FB
:104B00003B687A681A617B681B685A1C7B681A606C
:104B100000BF1437BD465DF8047B704780B485B094
:104B200000AF786039603B681B68BB60BB68B3F15D
:104B3000FF3F03D17B681B69FB600CE07B68083397
:104B4000FB6002E0FB685B68FB60FB685B681A68FF
:104B5000BB689A42F6D9FB685A683B685A603B6862
:104B60005B683A689A603B68FA689A60FB683A68E2
:104B70005A603B687A681A617B681B685A1C7B68BC
:104B80001A6000BF1437BD465DF8047B704700BF54
:104B900080B485B000AF78607B681B69FB607B6880
:104BA0005B687A6892689A607B689B687A685268EA
:104BB0005A60FB685A687B689A4203D17B689A689E
:104BC000FB685A607B6800221A61FB681B685A1EEA
:104BD000FB681A60FB681B6818461437BD465DF811
:104BE000047B704780B485B000AFF860B9607A602C
:104BF000FB68043BFB60FB684FF080721A60FB6847
:104C0000043BFB60BB6823F00102FB681A60FB6891
:104C1000043BFB600C4AFB681A60FB68143BFB60BA
:104C20007A68FB681A60FB68043BFB60FB686FF006
:104C300002021A60FB68203BFB60FB6818461437D1
:104C4000BD465DF8047B70474D4C000080B483B0D6
:104C500000AF0C4B1B68B3F1FF3F09D04FF02003AE
:104C600083F31188BFF36F8FBFF34F8F3B60FEE775
:104C70004FF0200383F31188BFF36F8FBFF34F8F83
:104C80007B60FEE70C000020FFFFFFFFFFFFFFFF40
:104C9000074B19680868B0E8F04F80F30988BFF344
:104CA0006F8F4FF0000080F311887047AFF30080E2
:104CB000FC02002000BF00BF06480068006880F3C7
:104CC000088862B661B6BFF34F8FBFF36F8F00DF06
:104CD00000BF00BF08ED00E080B586B000AF3B4BE1
:104CE0001B683B4A934209D14FF0200383F311889C
:104CF000BFF36F8FBFF34F8FFB60FEE7334B1B6833
:104D0000344A934209D14FF0200383F31188BFF353
:104D10006F8FBFF34F8F3B61FEE72F4B7B617B694A
:104D20001B78DBB2BB607B69FF221A707B691B7842
:104D3000DBB2FB71FB79DBB203F02003DAB2274B65
:104D40001A70274B07221A6009E0254B1B68013BAC
:104D5000234A1360FB79DBB25B00DBB2FB71FB79AA
:104D6000DBB25BB2002BF0DB1D4B1B681B021C4A45
:104D700013601B4B1B6803F4E063194A1360BB68A4
:104D8000DAB27B691A70174A164B1B6843F470033A
:104D90001360144A134B1B6843F070431360FFF712
:104DA00027FE114B00221A6000F0CEF80F4A0F4B7D
:104DB0001B6843F040431360FFF77EFFFFF746FF99
:104DC000002318461837BD4680BD00BF00ED00E047
:104DD00071C20F4170C20F4100E400E0F4020020F4
:104DE000F802002020ED00E00C00002034EF00E08D
:104DF00080B483B000AF4FF0200383F31188BFF37A
:104E00006F8FBFF34F8F3B600E4B1B6801330D4A12
:104E100013600C4B1B68012B0ED10B4B1B68DBB2D4
:104E2000002B09D04FF0200383F31188BFF36F8F5D
:104E3000BFF34F8F7B60FEE700BF0C37BD465DF8C8
:104E4000047B70470C00002004ED00E080B483B0C8
:104E500000AF114B1B68002B09D14FF0200383F3E7
:104E60001188BFF36F8FBFF34F8F3B60FEE70A4B94
:104E70001B68013B084A1360074B1B68002B04D1D9
:104E800000237B607B6883F3118800BF0C37BD462D
:104E90005DF8047B704700BF0C000020FFFFFFFFA0
:104EA000EFF30980BFF36F8F154B1A681EF0100FD8
:104EB00008BF20ED108A20E9F04F10604DF8043D46
:104EC0004FF0200080F31188BFF34F8FBFF36F8F37
:104ED00001F00AF94FF0000080F3118808BC19684E
:104EE0000868B0E8F04F1EF0100F08BFB0EC108A51
:104EF00080F30988BFF36F8F704700BFAFF3008066
:104F0000FC02002000BF00BF80B582B000AF4FF0B0
:104F1000200383F31188BFF36F8FBFF34F8F3B6084
:104F200001F036F80346002B03D0064B4FF08052B9
:104F30001A6000237B607B6883F3118800BF083709
:104F4000BD4680BD04ED00E0DFF80C00016841F4CF
:104F500070010160704700BF88ED00E080B485B04B
:104F600000AFEFF30583FB60FB680F2B13D9164AE4
:104F7000FB6813441B78FB72144B1B78FA7A9A4235
:104F800009D24FF0200383F31188BFF36F8FBFF373
:104F90004F8F3B60FEE70E4B1B6803F4E0620D4B46
:104FA0001B689A4209D94FF0200383F31188BFF39D
:104FB0006F8FBFF34F8F7B60FEE700BF1437BD4696
:104FC0005DF8047B704700BFF0E300E0F4020020CE
:104FD0000CED00E0F802002080B584B000AF7860EE
:104FE00039607B68FB60FB68002B09D14FF0200320
:104FF00083F31188BFF36F8FBFF34F8FBB60FEE762
:10500000FFF7F6FEFB681A68FB68DB6BF968096C52
:1050100001FB03F31A44FB685A60FB6800229A63A1
:10502000FB681A68FB689A60FB681A68FB68DB6BB0
:10503000013BF968096C01FB03F31A44FB68DA6071
:10504000FB68FF2283F84420FB68FF2283F8452099
:105050003B68002B14D1FB681B69002B1AD0FB683E
:105060001033184601F0F8F80346002B12D00D4B10
:105070004FF080521A60BFF34F8FBFF36F8F09E07C
:10508000FB6810331846FFF7F7FCFB68243318461B
:10509000FFF7F2FCFFF7DAFE012318461037BD4692
:1050A00080BD00BF04ED00E080B58AB002AFF860BB
:1050B000B9601346FB71FB68002B09D14FF0200348
:1050C00083F31188BFF36F8FBFF34F8F3B61FEE710
:1050D000BB68002B02D10023FB6104E0FB68BA68C7
:1050E00002FB03F3FB61FB6950331846FFF7A0FC9A
:1050F000B861BB69002B0BD0BB6950337B61FA7977
:10510000BB69009313467A69B968F86800F006F83D
:10511000BB6918462037BD4680BD00BF80B584B04E
:1051200000AFF860B9607A60FB70BB68002B03D1F8
:10513000BB69BA691A6002E0BB697A681A60BB6928
:10514000FA68DA63BB69BA681A640121B869FFF7C3
:1051500043FFBB69FA7883F84C2000BF1037BD4687
:1051600080BD00BF80B58EB000AFF860B9607A60D6
:105170003B6000237B63FB683B633B6B002B09D1E7
:105180004FF0200383F31188BFF36F8FBFF34F8F6E
:10519000FB61FEE7BB68002B03D13B6B1B6C002B54
:1051A00001D1012300E00023002B09D14FF020039F
:1051B00083F31188BFF36F8FBFF34F8F3B62FEE71E
:1051C0003B68022B03D13B6BDB6B012B01D101232D
:1051D00000E00023002B09D14FF0200383F3118856
:1051E000BFF36F8FBFF34F8F7B62FEE701F0F0F9E3
:1051F0000346002B02D17B68002B01D1012300E084
:105200000023002B09D14FF0200383F31188BFF353
:105210006F8FBFF34F8FBB62FEE7FFF7E9FD3B6B7C
:105220009A6B3B6BDB6B9A4202D33B68022B29D112
:105230003A68B968386B00F0BFFAF8623B6B5B6A9A
:10524000002B10D03B6B2433184601F005F80346C1
:10525000002B13D03F4B4FF080521A60BFF34F8F9B
:10526000BFF36F8F0AE0FB6A002B07D0394B4FF07A
:1052700080521A60BFF34F8FBFF36F8FFFF7E6FDC9
:10528000012363E07B68002B03D1FFF7DFFD0023E0
:105290005CE07B6B002B06D107F11403184601F08C
:1052A0003DF801237B63FFF7D1FD00F0B7FDFFF769
:1052B0009FFD3B6B93F844305BB2B3F1FF3F03D1EA
:1052C0003B6B002283F844203B6B93F845305BB284
:1052D000B3F1FF3F03D13B6B002283F84520FFF77A
:1052E000B5FD3A1D07F114031146184601F03AF8CE
:1052F0000346002B24D1386B00F056FB0346002BED
:1053000018D03B6B10337A681146184600F056FFF0
:10531000386B00F0E1FA00F08FFD0346002B7FF4BC
:105320007CAF0C4B4FF080521A60BFF34F8FBFF32E
:105330006F8F72E7386B00F0CFFA00F07DFD6CE7FD
:10534000386B00F0C9FA00F077FD002318463837B3
:10535000BD4680BD04ED00E080B58EB000AFF860C2
:10536000B9607A603B60FB683B633B6B002B09D103
:105370004FF0200383F31188BFF36F8FBFF34F8F7C
:105380007B61FEE7BB68002B03D13B6B1B6C002BE2
:1053900001D1012300E00023002B09D14FF02003AD
:1053A00083F31188BFF36F8FBFF34F8FBB61FEE7AD
:1053B0003B68022B03D13B6BDB6B012B01D101233B
:1053C00000E00023002B09D14FF0200383F3118864
:1053D000BFF36F8FBFF34F8FFB61FEE7FFF7BEFD9B
:1053E000EFF311824FF0200383F31188BFF36F8F27
:1053F000BFF34F8F3A623B613B6ABB623B6B9A6B78
:105400003B6BDB6B9A4202D33B68022B2CD13B6B8C
:1054100093F8453087F827303A68B968386B00F060
:10542000CBF997F92730B3F1FF3F12D13B6B5B6AA1
:10543000002B16D03B6B2433184600F00DFF0346BB
:10544000002B0ED07B68002B0BD07B6801221A60EA
:1054500007E097F827300133DBB25AB23B6B83F891
:10546000452001237B6301E000237B63BB6AFB6271
:10547000FB6A83F311887B6B18463837BD4680BDC5
:1054800080B58EB000AF786039607B683B633B6B62
:10549000002B09D14FF0200383F31188BFF36F8FE6
:1054A000BFF34F8F3B61FEE73B6B1B6C002B09D0BA
:1054B0004FF0200383F31188BFF36F8FBFF34F8F3B
:1054C0007B61FEE73B6B1B68002B03D13B6B5B688A
:1054D000002B01D1012300E00023002B09D14FF064
:1054E000200383F31188BFF36F8FBFF34F8FBB612E
:1054F000FEE7FFF733FDEFF311824FF0200383F354
:105500001188BFF36F8FBFF34F8FFA61FB60FB69A8
:10551000BB623B6B9B6B7B623B6BDA6B7B6A9A4239
:105520002BD93B6B93F8453087F823307B6A5A1CA4
:105530003B6B9A6397F92330B3F1FF3F12D13B6B7A
:105540005B6A002B16D03B6B2433184600F084FEB8
:105550000346002B0ED03B68002B0BD03B6801228A
:105560001A6007E097F823300133DBB25AB23B6B85
:1055700083F8452001237B6301E000237B63BB6A42
:10558000FB62FB6A83F311887B6B18463837BD4694
:1055900080BD00BF80B58EB000AFF860B9607A60A2
:1055A0003B6000237B63FB683B633B6B002B09D1B3
:1055B0004FF0200383F31188BFF36F8FBFF34F8F3A
:1055C000FB61FEE7BB68002B03D13B6B1B6C002B20
:1055D00001D1012300E00023002B09D14FF020036B
:1055E00083F31188BFF36F8FBFF34F8F3B62FEE7EA
:1055F00000F0EEFF0346002B02D17B68002B01D1A7
:10560000012300E00023002B09D14FF0200383F396
:105610001188BFF36F8FBFF34F8F7B62FEE7FFF7F9
:10562000E7FB3B6B9B6BFB62FB6A002B46D03B6B43
:10563000DB68BB62B968386B00F028F93B68002B67
:1056400021D1FB6A5A1E3B6B9A633B6B1B68002B94
:1056500004D101F0D5F802463B6B5A603B6B1B69E5
:10566000002B27D03B6B1033184600F0F5FD0346A6
:10567000002B1FD04F4B4FF080521A60BFF34F8F5B
:10568000BFF36F8F16E03B6BBA6ADA603B6B5B6A05
:10569000002B0FD03B6B2433184600F0DDFD034692
:1056A000002B07D0434B4FF080521A60BFF34F8F4F
:1056B000BFF36F8FFFF7CAFB012377E07B68002BF6
:1056C00003D1FFF7C3FB002370E07B6B002B06D1F7
:1056D00007F11403184600F021FE01237B63FFF756
:1056E000B5FB00F09BFBFFF783FB3B6B93F844306B
:1056F0005BB2B3F1FF3F03D13B6B002283F8442040
:105700003B6B93F845305BB2B3F1FF3F03D13B6B8A
:10571000002283F84520FFF799FB3A1D07F1140397
:105720001146184600F01EFE0346002B31D1386B9F
:1057300000F024F90346002B25D03B6B1B68002B9F
:1057400008D1FFF755FB3B6B5B68184600F05EFF26
:10575000FFF77CFB3B6B24337A681146184600F058
:105760002DFD386B00F0B8F800F066FB0346002B07
:105770007FF455AF0F4B4FF080521A60BFF34F8F3D
:10578000BFF36F8F4BE7386B00F0A6F800F054FBC7
:1057900045E7386B00F0A0F800F04EFB386B00F0E6
:1057A000EDF80346002B3FF43AAF00231846383794
:1057B000BD4680BD04ED00E080B586B000AFF86066
:1057C000B9607A6000237B61FB689B6B3B61FB687F
:1057D0001B6C002B0DD1FB681B68002B4DD1FB68A7
:1057E0005B68184600F088FF7861FB6800225A6009
:1057F00043E07B68002B19D1FB689868FB681B6C41
:105800001A46B96806F056FCFB689A68FB681B6C80
:105810001A44FB689A60FB689A68FB685B689A4266
:105820002BD3FB681A68FB689A6026E0FB68D8688F
:10583000FB681B6C1A46B96806F03CFCFB68DA682A
:10584000FB681B6C5B421A44FB68DA60FB68DA6831
:10585000FB681B689A4207D2FB685A68FB681B6C9E
:105860005B421A44FB68DA607B68022B05D13B6916
:10587000002B02D03B69013B3B613B695A1CFB6832
:105880009A637B6918461837BD4680BD80B582B0E3
:1058900000AF786039607B681B6C002B18D07B6888
:1058A000DA687B681B6C1A447B68DA607B68DA68AC
:1058B0007B685B689A4203D37B681A687B68DA600E
:1058C0007B68D9687B681B6C1A46386806F0F2FB67
:1058D00000BF0837BD4680BD80B584B000AF78609A
:1058E000FFF786FA7B6893F84530FB7311E07B681D
:1058F0005B6A002B12D07B682433184600F0ACFCA6
:105900000346002B01D000F08BFDFB7B013BDBB29B
:10591000FB7397F90F30002BE9DC00E000BF7B68D8
:10592000FF2283F84520FFF791FAFFF761FA7B68C1
:1059300093F84430BB7311E07B681B69002B12D0D5
:105940007B681033184600F087FC0346002B01D01B
:1059500000F066FDBB7B013BDBB2BB7397F90E30F9
:10596000002BE9DC00E000BF7B68FF2283F84420C5
:10597000FFF76CFA00BF1037BD4680BD80B584B01C
:1059800000AF7860FFF734FA7B689B6B002B02D185
:105990000123FB6001E00023FB60FFF757FAFB687F
:1059A00018461037BD4680BD80B584B000AF786022
:1059B000FFF71EFA7B689A6B7B68DB6B9A4202D119
:1059C0000123FB6001E00023FB60FFF73FFAFB6867
:1059D00018461037BD4680BD80B485B000AF7860F2
:1059E00039600023FB6014E00E4AFB6852F8333044
:1059F000002B0BD10B49FB683A6841F83320094A68
:105A0000FB68DB0013447A685A6005E0FB680133E9
:105A1000FB60FB68072BE7D900BF1437BD465DF874
:105A2000047B7047100D002080B586B000AFF86091
:105A3000B9607A60FB687B61FFF7DAF97B6993F8FC
:105A400044305BB2B3F1FF3F03D17B69002283F89E
:105A500044207B6993F845305BB2B3F1FF3F03D13B
:105A60007B69002283F84520FFF7F0F97B699B6B87
:105A7000002B06D17B6924337A68B968184600F098
:105A8000C1FB7869FFF728FF00BF1837BD4680BD0E
:105A900080B58CB004AFF860B9603B601346FB8002
:105AA000FB889B001846FEF7C3FF78617B69002BDB
:105AB0000ED07420FEF7BCFFF861FB69002B03D009
:105AC000FB697A691A6305E07869FEF7C3FF01E0B4
:105AD0000023FB61FB69002B13D0FA88002303939A
