:100000000000032051020000CD020000D5020000D4
:10001000FD020000050300000D03000000000000C9
:10002000000000000000000000000000C18500008A
:100030001D03000000000000D18700003988000087
:10004000C5CF0100D1CF0100DDCF0100E9CF010014
:10005000F5CF010001D001000DD0010019D0010041
:1000600025D0010031D001003DD0010049D0010070
:1000700055D0010061D001006DD0010079D00100A0
:1000800085D0010091D001009DD00100A9D00100D0
:10009000B5D00100C1D00100CDD00100D9D0010000
:1000A000E5D00100F1D00100FDD0010009D101002F
:1000B00015D1010021D101002DD1010039D101005C
:1000C00045D1010051D101005DD1010069D101008C
:1000D00075D1010081D101008DD1010099D10100BC
:1000E000A5D10100B1D10100BDD10100C9D10100EC
:1000F000D5D10100E1D10100EDD10100F9D101001C
:1001000005D2010011D201001DD2010029D2010047
:1001100035D2010051E3010041D201004DD201006E
:1001200059D2010065D2010071D201007DD20100D7
:1001300089D20100ED09000095D20100A1D2010091
:10014000ADD20100B9D20100C5D20100D1D2010067
:10015000DDD20100E9D20100F5D2010001D3010096
:100160000DD3010019D3010025D3010031D30100C3
:100170003DD3010049D3010055D3010061D30100F3
:100180006DD3010079D301008145000015450000C1
:10019000394500005D450000A094020000000020E9
:1001A00074010000A09402000000FF1F0000000086
:1001B000A0940200000000140000000000020020D3
:1001C000ACE800000000FF1F000000000000001469
:1001D0000000000080B489B000AFF860B9607A60B8
:1001E000BB68FB61FB68BB6100237B610AE0FB69C4
:1001F0001A1DFA61BA69111DB96112681A607B692A
:1002000004337B617A697B689A42F0D300BF24375C
:10021000BD465DF8047B704780B485B000AF786060
:1002200039607B68FB600023BB6007E0FB681A1D38
:10023000FA6000221A60BB680433BB60BA683B688E
:100240009A42F3D300BF1437BD465DF8047B704774
:1002500080B584B000AF72B600F094FD184BFB601F
:1002600013E0FB681A1DFA601B68BB60FB681A1D6F
:10027000FA601B687B60FB681A1DFA601B683B60B4
:100280003A687968B868FFF7A5FFFB680D4A9342A2
:10029000E7D30DE0FB681A1DFA601B687B60FB6802
:1002A0001A1DFA601B683B6039687868FFF7B4FF75
:1002B000FB68054A9342EDD362B61CF059FCFEE799
:1002C00098010000BC010000D401000080B400AF20
:1002D000FEE700BF80B400AF1EF0040F0CBFEFF3C9
:1002E0000880EFF309808169004A104789CF010037
:1002F00000BFBD465DF8047B704700BF80B400AF0F
:10030000FEE700BF80B400AFFEE700BF80B400AFDF
:10031000FEE700BF80B400AFFEE700BF80B400AFCF
:10032000FEE700BF80B400AFFEE700BF80B400AFBF
:10033000FEE700BF80B400AFFEE700BFFFFFFFFF96
:10034000FFFFFFFFFFFFFFFFFFFFFFFFFFFFFFFFBD
:10035000FFFFFFFFFFFFFFFFFFFFFFFFFFFFFFFFAD
:10036000FFFFFFFFFFFFFFFFFFFFFFFFFFFFFFFF9D
:10037000FFFFFFFFFFFFFFFFFFFFFFFFFFFFFFFF8D
:10038000FFFFFFFFFFFFFFFFFFFFFFFFFFFFFFFF7D
:10039000FFFFFFFFFFFFFFFFFFFFFFFFFFFFFFFF6D
:1003A000FFFFFFFFFFFFFFFFFFFFFFFFFFFFFFFF5D
:1003B000FFFFFFFFFFFFFFFFFFFFFFFFFFFFFFFF4D
:1003C000FFFFFFFFFFFFFFFFFFFFFFFFFFFFFFFF3D
:1003D000FFFFFFFFFFFFFFFFFFFFFFFFFFFFFFFF2D
:1003E000FFFFFFFFFFFFFFFFFFFFFFFFFFFFFFFF1D
:1003F000FFFFFFFFFFFFFFFFFFFFFFFFFFFFFFFF0D
:10040000FFFFFFFFFFFFFFFFFFFFFFFFFEFFFFFFFD
:1004100080B483B000AF0346FB71094997F90730F8
:100420005B09FA7902F01F02012000FA02F241F89A
:10043000232000BF0C37BD465DF8047B704700BF2A
:1004400000E100E080B483B000AF03463960FB7187
:1004500097F90730002B0BDA0D49FB7903F00F03F6
:10046000043B3A68D2B21201D2B20B441A7609E0C8
:10047000084997F907303A68D2B21201D2B20B4458
:1004800083F8002300BF0C37BD465DF8047B70473E
:1004900000ED00E000E100E080B582B000AF03466F
:1004A000FB7197F9073013F1800F05D097F90730EA
:1004B0001846FFF7ADFF00E000BF0837BD4680BD1E
:1004C00080B586B000AFF860B9607A607B68002BB9
:1004D00006D10A4B0A4A4FF481710A4802F02EF8FD
:1004E000BB689B00FA6813447B617B697A68128859
:1004F0001A8000BF1837BD4680BD00BF483F0200CC
:10050000783F0200503F020080B485B000AFF86031
:10051000B9601346FB71FB68BA6853F8223023F4C4
:100520007022FB791B0403F4702342EA0301FB6889
:10053000BA6843F8221000BF1437BD465DF8047B4B
:10054000704700BF80B485B000AFF860B9607A60D2
:100550003B607B68002B02D10A4B01221A707B683A
:1005600040F24E42934204D07B6840F251429342A3
:1005700002D1054B01221A7000BF1437BD465DF849
:10058000047B7047280200202902002080B58AB031
:1005900000AF7860084611461A460346FB700B46CA
:1005A000BB7013467B7007F10C031822002118461C
:1005B00021F0B8FEFB783B7400237B74BB787B6131
:1005C00001233B767B1CFB6101233B620023FB6024
:1005D00007F10C031A461949194805F0D9FF09F02B
:1005E000A9FA034664337B6200BF164B1B78DBB26B
:1005F00083F00103DBB2002B0DD0134B1B78DBB271
:1006000083F00103DBB2002B05D009F093FA024618
:100610007B6A9A42E9D30B4B00221A700A4B1B7873
:10062000DBB2002B04D0084B00221A70012300E03B
:10063000002318462837BD4680BD00BF00020020B9
:1006400000700640290200202802002080B58AB0F0
:1006500000AFF8607B600B46FB721346BB7207F17C
:10066000100318220021184621F05CFEFB7A3B752E
:1006700001237B75BB7ABB6101233B777B683B62BF
:100680003B6B7B6200233B6107F110031A46134961
:10069000134805F07DFF00BF124B1B78DBB283F0DF
:1006A0000103DBB2002B07D00F4B1B78DBB283F0CA
:1006B0000103DBB2002BEFD10A4B00221A700A4B68
:1006C0001B78DBB2002B04D0074B00221A700123E9
:1006D00000E0002318462837BD4680BD00020020F8
:1006E00000700640290200202802002080B588B052
:1006F00002AF7860394B186800234FF47A720021FA
:1007000008F012FC0346012BF4D1354B1B78DBB209
:10071000002B54D0324B00221A7007F108020D232F
:100720000093134600221E212E48FFF78FFF034639
:10073000002B44D07B7A1B021AB2BB7A1BB2134344
:100740001BB29B101AB2284B1A80FB7A1B021AB2FA
:100750003B7B1BB213431BB29B101AB2224B5A8035
:100760007B7B1B021AB2BB7B1BB213431BB29B10D9
:100770001AB21D4B9A80FB7B1B021AB23B7C1BB248
:1007800013431AB2184BDA807B7C1B021AB2BB7C73
:100790001BB213431AB2144B1A81FB7C1B021AB210
:1007A0003B7D1BB213431AB20F4B5A810F4B1B6890
:1007B000002B04D00D4B1B6800210B4898470C4BB5
:1007C0001B78DBB2002B95D0094B00221A70074B27
:1007D0001B680121044898478CE700BF2C020020C9
:1007E0004102002000700640300200203C02002040
:1007F0004002002080B58AB002AF78600023BB833E
:100800003B7F43F003033B773B7F43F020033B7781
:100810007B7F022262F302037B7707F11C031A46F7
:100820000A216748FFF74CFE00233B833B7E43F0E1
:1008300003033B763B7E43F020033B767B7E022224
:1008400062F302037B7607F118031A460B215C481A
:10085000FFF736FE07F10C03184605F09DFC594BD7
:100860003B61022001F078FA024607F10C031946B9
:10087000554805F01BFC0023544A5549524805F0E1
:1008800045FE544A07F1080312881A8007F108034D
:100890001A460821504805F03DF900237B7207F104
:1008A00008031A4609214C4805F034F9022009F0E2
:1008B00017F800232A221E214348FFF767FE1F2353
:1008C0005B221E214048FFF761FE20235C221E218F
:1008D0003D48FFF75BFE00230E221E213A48FFF73A
:1008E00055FE202321221E213748FFF74FFE1023FB
:1008F00023221E213448FFF749FE102324221E2103
:100900003148FFF743FE102325221E212E48FFF712
:100910003DFE062326221E212B48FFF737FE282303
:1009200027221E212848FFF731FE0F2328221E21EF
:100930002548FFF72BFE08232E221E212248FFF711
:1009400025FE09232D221E211F48FFF71FFE234AE3
:100950007B68136003220021012008F03DF8024665
:100960001F4B1A601E4B186800236422002108F0F8
:10097000DBFA002301930423009300234FF48072D9
:100980001849194808F0D8FD0A2206210C48FFF73B
:10099000BBFD0A2205210A48FFF7B6FD02213D20D2
:1009A000FFF750FD3D20FFF777FD15232A221E217A
:1009B0000548FFF7EBFD00BF2037BD4680BD00BFF7
:1009C00000B0044090D003000070064045050000D0
:1009D00000020020743F020080F00F403C02002023
:1009E0002C0200206C3F0200ED06000080B582B0B2
:1009F00000AF194805F0C6F878607B6803F0200363
:100A0000002B06D02021144805F0D4F8134B012206
:100A10001A707B6803F04003002B06D040210E487B
:100A200005F0C8F80E4B01221A700E4B1B683A46AF
:100A30001146184608F0EEF93B68002B07D00A4B28
:100A40004FF080521A60BFF34F8FBFF36F8F00BF1C
:100A50000837BD4680BD00BF80F00F404002002037
:100A6000410200202C02002004ED00E080B582B09D
:100A700000AF786007F054FE0C220549786821F039
:100A800046FC07F07BFE00BF0837BD4680BD00BFB7
:100A90003002002080B483B000AF786039607B689A
:100AA0001A6B3B68134018460C37BD465DF8047B53
:100AB000704700BF80B483B000AF786039607B6856
:100AC0003A681A6300BF0C37BD465DF8047B704777
:100AD00080B58AB000AF786007F11403184603F0C0
:100AE00077FF01233B767B687B61022001F034F9BC
:100AF000024607F114031946114803F0DBFE2023D8
:100B000087F824300F4B3B62002387F82530002301
:100B100087F82630802200210A4821F003FC07F1E3
:100B2000200300221946064804F0AEF801220F21E6
:100B3000034803F0BFFF00BF2837BD4680BD00BF9C
:100B4000004002404402002080B584B000AF03465C
:100B50003960FB711346BB71FB791F2B26D820230C
:100B60003B73144BBB6000237B730023BB73BB79C7
:100B7000002B0AD0FA793B685B0023F0404323F056
:100B800001030C4941F8223009E0FA793B68D904A5
:100B9000094B0B4043F08043064941F8223007F1EE
:100BA000080301221946054804F06EF800BF10370B
:100BB000BD4680BD440200200000F83F00400240D6
:100BC00080B588B000AF7860396008F0B3FF0246A6
:100BD0003B681344FB617B681B79002B0CD0BB7B0B
:100BE00043F02003BB737B681B6823F060423B69C2
:100BF00062F31C033B610EE0BB7B6FF34513BB73D9
:100C00007B681B689B0423F06043294A1A403B69B8
:100C100062F31C033B61BB7B6FF30413BB737B6804
:100C20005B7903F00F03DAB2BB7B62F30303BB73A0
:100C30007B689B791A067B68DB791B041A447B6806
:100C40001B7A1B0213447A68527A13447B617B68D7
:100C50009B7A1A067B68DB7A1B041A447B681B7B31
:100C60001B0213447A68527B1344BB6102E00120EB
:100C700008F036FE07F10C031A460F210D4804F068
:100C80002DF90346012B05D108F054FF0246FB69FC
:100C90009A42ECD908F04EFF0246FB699A4201D90C
:100CA000002300E0012318462037BD4680BD00BF69
:100CB0000000FC1F0040024080B588B000AF7860A3
:100CC0000023FB7720212E48FFF7E4FE0346002B8C
:100CD00050D007F10C031946294804F0B5F9034632
:100CE000002B47D1BB7B03F02003DBB2002B0BD1E1
:100CF0007B6800221A713B69C3F31C039B0CC3F38E
:100D00000A027B681A6009E07B6801221A713B695C
:100D1000C3F31C03C3F311027B681A60BB7BC3F3EC
:100D20000303DBB21A467B685A71FA7D7B689A71BD
:100D3000BA7D7B68DA717A7D7B681A723A7D7B684E
:100D40005A72FA7E7B689A72BA7E7B68DA727A7E11
:100D50007B681A733A7E7B685A73FB89C3F3C813A6
:100D60009BB2DAB27B689A7320210548FFF7A2FE96
:100D70000123FB77FB7F18462037BD4680BD00BFAF
:100D80000040024080B400AF0C4A0C4BD3F88830CE
:100D900043F47003C2F88830094B4CF22052DA81D8
:100DA000074B4DF62812DA81054B4FF4E9721A8091
:100DB00000BFBD465DF8047B704700BF00ED00E05A
:100DC0000020054080B483B000AF964B1B78DBB2A7
:100DD00003F0C003002B40F0D280924B5B79DBB272
:100DE00003F04003002B40F0AD808E4B1B78DBB24C
:100DF00003F00403002B4ED18A4B1B7BDBB203F0C4
:100E00000303002B02D0012B03D006E0864B7B604E
:100E100006E04FF400437B6002E0844B7B6000BF40
:100E2000804B5B78DBB203F03003002B23D07D4B8B
:100E30001B7BDBB203F00303012B1CD0794B1B7827
:100E4000DBB203F03803302B05D0382B07D14FF439
:100E5000C0637B800EE04FF4A0637B800AE0714B9F
:100E60001B78DBB203F03803DB08202202FA03F31D
:100E70007B8000BF09E06B4B1B78DBB203F03803CB
:100E8000DB08012202FA03F37B807B887A68B2FBDD
:100E9000F3F37B6002E04FF400437B60614BDB784F
:100EA000DBB203F0E003602B29D0602B06D8202BA7
:100EB00017D0402B1CD0002B0CD09DE0A02B2CD0A9
:100EC000A02B02D8802B21D096E0C02B2CD0E02B79
:100ED00031D091E07A6813469B001344DB017B60BC
:100EE0008AE07A6813469B0013441B027B6083E010
:100EF0007A6813461B019B1ADB017B607CE07A68F1
:100F000013469B0013445B027B6075E07B684FF4E3
:100F1000377202FB03F37B606EE07B684FF4B762CD
:100F200002FB03F37B6067E07B6840F6950202FBFF
:100F300003F37B6060E07B6840F6713202FB03F3F1
:100F40007B6059E0374B1B79DBB29BB203F01F0388
:100F50009BB201337B807B88334AB2FBF3F37B6027
:100F6000304B5B79DBB29BB203F01F039BB21833AB
:100F70007B807A887B6802FB03F37B603CE0294B33
:100F80001B78DBB203F0C003402B1AD1254B5B78F2
:100F9000DBB203F00103002B03D14FF400437B606D
:100FA0002AE0204B1B7ADBB203F00E035B08012220
:100FB00002FA03F37B807B881D4AB2FBF3F37B606C
:100FC0001AE0184B1B78DBB203F0C003802B22D150
:100FD000144B1B7BDBB203F00303002B02D0012B6D
:100FE00003D006E0104B7B6006E04FF400437B60CB
:100FF00002E00E4B7B6000BF0E4B03F582530433BF
:101000001B6803F070431B0F01337A68B2FBF3F3E4
:10101000094A136000E000BF0C37BD465DF8047B51
:10102000704700BF00400640001BB700006CDC02A8
:1010300000093D00007004400000002080B483B02F
:1010400000AF78600B46FB70FB78002B06D07B6806
:101050001B6843F001027B681A6005E07B681B682F
:1010600023F001027B681A6000BF0C37BD465DF8B3
:10107000047B704780B588B000AF786000233B6187
:101080000023FB610023BB6100237B610FE07B69D0
:1010900003F00303002B07D101227B6902FA03F35B
:1010A0001A46FB691343FB617B6901337B617B69F2
:1010B0001F2BECDD09F0AAFE09F0DEFF012009F08C
:1010C000C5FF0021002009F049FF0021012009F09F
:1010D00045FF0021022009F041FF0021032009F013
:1010E0003DFF09F0C9FF00237B6113E07B69D8B2A3
:1010F00001227B6902FA03F31A46FB691340002BB5
:1011000014BF01230023DBB2194609F077FF7B6986
:1011100001337B617B691F2BE8DD09F091FFBB691F
:10112000DBB20021184609F019FFBB695A1C0C4BB1
:101130001340002B03DA013B63F003030133BB616F
:10114000BB69DBB20121184609F008FFFB694FEAD1
:10115000F373FB60FB68FB614B2008F0C1FBC0E749
:101160000300008080B483B000AF78600B46FB7052
:10117000FB78002B02D0044B01221A7000BF0C3701
:10118000BD465DF8047B7047C402002080B59AB06C
:1011900002AF7860002387F85F3016F0F1FDA548B4
:1011A000FFF728FB002301930323009300234FF450
:1011B0008072A149A14808F0BFF916F06BFF97F8BB
:1011C0005F30052B00F2F08001A252F823F000BF3F
:1011D000E9110000FD110000911200000F13000042
:1011E000411300008B130000954B0022002195480D
:1011F00016F038FD012387F85F30D8E007F150037F
:101200001846FFF733FC8E4B002200218D4816F064
:1012100029FDB7F950301A46B7F9563007F12800C2
:10122000894920F029FD07F12800854B0F22002174
:1012300016F018FDB7F952301A46B7F9583007F1D1
:101240002800824920F018FD07F128007C4B1E225F
:10125000002116F007FDB7F954301A46B7F95A3095
:1012600007F128007A4920F007FD07F12800744BA8
:101270002D22002116F0F6FC764B1B78002B00F097
:101280009580744B00221A70022387F85F308DE03E
:101290006B4B00220021704816F0E4FC16F09EFE15
:1012A0006E48FFF715FC01224FF40D710020FFF787
:1012B0004BFC07F1180310220021184621F032F8E8
:1012C00040F22313BB6101233B7708237B77112373
:1012D000BB772223FB77332387F82030442387F81A
:1012E0002130552387F82230662387F8233077236F
:1012F00087F82430882387F8253007F11803642104
:101300001846FFF75DFC032387F85F304FE007F1D5
:10131000180364211846FFF753FC07F10803184629
:10132000FFF7CAFC0346002B03D0042387F85F3085
:101330003DE0434B00220021494816F093FC36E083
:101340003F4B00220021474816F08CFC16F046FE69
:1013500000214548FFF772FE19F0DAFA0346002B28
:1013600003D0052387F85F3021E0354B00220021B0
:101370003E4816F077FC16F031FE4FF47A7008F014
:10138000AFFA052387F85F3011E02D4B00220021D2
:10139000374816F067FC16F021FE06F0D7FD4FF433
:1013A0007A7008F09DFAFAE700BF00E000BF16F07F
:1013B00089FF0346002B05D02E4A0421702016F029
:1013C000D9FB31E016F08EFF034687F85E3097F8C0
:1013D0005E304B2B05D9284A0421702016F0CAFB39
:1013E00022E097F85E30322B05D9244A0421702080
:1013F00016F0C0FB18E097F85E30192B05D9204A8B
:101400000421702016F0B6FB0EE097F85E300A2B30
:1014100005D91C4A0421702016F0ACFB04E01A4ADE
:101420000421702016F0A6FB16F0D8FD642008F009
:1014300057FAC2E665110000344002007510000042
:10144000FC8D02003840020044400200504002007F
:101450005C400200C40200206840020048E801002D
:10146000744002008040020000D00040884002002A
:1014700098400200F03F020028400200D43F0200E2
:10148000B83F02009C3F02000C40020080B582B0D1
:1014900002AF002301930223009300234FF48062E4
:1014A0000349044808F048F800BF1846BD4680BD0F
:1014B000A84002008D11000080B485B000AF7860B4
:1014C0007B681B0C03F1804303F58E23FB60FB68F4
:1014D000FA6811687A6892B2012000FA02F20A43AF
:1014E0001A6000BF1437BD465DF8047B704700BF2B
:1014F00080B584B000AF78600023FB6009E00E4A3D
:10150000FB6852F823207B689A4206D0FB680133BF
:10151000FB60FB68012BF2D900E000BFFB68012BE8
:1015200005D9064B064A4621064801F007F8FB6834
:1015300018461037BD4680BDB0400200C0400200D2
:101540002C410200E440020080B584B000AF786016
:1015500039603B68002B05D13E4B3F4A4D213F4847
:1015600000F0ECFF7868FFF7C3FF02463C4B53F8EE
:1015700022301846FFF7A0FF3B685B7803F00302B8
:101580003B681B799B0003F00C031343FB603B6833
:101590005B79042B03D0FB6843F01003FB603B68CE
:1015A000DB785B0103F06003FA681343FB603B6880
:1015B000DB79002B03D0FB6843F08003FB607B6882
:1015C000FA689A607B68DB6823F00F03FB603B6876
:1015D0005B79042B06D03B685B7903F00303FA6860
:1015E0001343FB603B689B79002B03D0FB6843F0FF
:1015F0000403FB603B689B78002B03D0FB6843F03F
:101600000803FB607B68FA68DA607B681B6A23F07A
:101610000303FB603B681B7803F00303FA68134382
:10162000FB607B68FA681A623B681B7A002B06D065
:101630007B685B6A43F008027B685A6205E07B685E
:101640005B6A23F008027B685A6200BF1037BD4610
:1016500080BD00BFFC40020040410200E4400200A7
:10166000B840020080B582B000AF78607B68002B84
:1016700005D1124B124A8D21124800F05FFF7B68A2
:1016800000221A707B6803225A707B6801229A70CC
:101690007B680322DA707B6801221A717B6804225E
:1016A0005A717B6800229A717B680022DA717B682C
:1016B00000221A7200BF0837BD4680BDFC40020000
:1016C0004C410200E440020080B586B000AF786073
:1016D0000023FB7500233B617B681B6A03F040031A
:1016E000002B07D00123FB757B681B6A23F04002A7
:1016F0007B681A627B685B6A43F0C0027B685A624F
:101700000AE0786800F066F8034603F04003002B17
:1017100002D001233B6108E00021786800F0BCF8AA
:10172000034603F08003002BEBD07B681B69FB6052
:10173000FB7D002B05D07B681B6A43F040027B6871
:101740001A62786800F046F8034603F04003002B65
:1017500001D001233B613B69002B01D03B6934E0A0
:101760007B68DA6C7B689B6C1A447B685B6C1A4400
:101770007B681B6C1A447B68DB6B1A447B689B6B31
:101780001344FB60FB685B0843F40043FB60FA68AA
:101790007B68DA627B68DA6E7B689B6E1A447B68D2
:1017A0005B6E1A447B681B6E1A447B68DB6D1A44BF
:1017B0007B689B6D1344FB60FB685B0843F400434C
:1017C000FB60FA687B681A63002318461837BD4629
:1017D00080BD00BF80B485B000AF78600023FB609F
:1017E0007B681B6A03F08003002B03D0FB6843F087
:1017F0008003FB607B685B6A03F04003002B03D02F
:10180000FB6843F04003FB60FB6818461437BD4695
:101810005DF8047B704700BF80B586B000AFF8600C
:10182000B9607A60BB68012B06D9174B174A40F2A2
:101830005311174800F082FE7B68002B06D1154B30
:10184000124A4FF4AA71124800F078FE7B681B68B8
:1018500003F01F037B617B685B79002B03D07B69FE
:1018600043F020037B617B681B79002B03D07B69ED
:1018700043F040037B61FB68BA68796943F8221042
:1018800000BF1837BD4680BD0C4102006441020014
:10189000E4400200FC40020080B584B000AF7860F4
:1018A00039603B68012B06D90C4B0D4A40F2691197
:1018B0000C4800F043FE0023FB607B683A6853F855
:1018C000223003F08003002B03D0FB6843F0800339
:1018D000FB60FB6818461037BD4680BD0C41020016
:1018E0007C410200E440020080B485B000AF786023
:1018F0007B681B0C03F1804303F58E23FB60FB68C0
:10190000FA6811687A6892B2012000FA02F20A437A
:101910001A6000BF1437BD465DF8047B704700BFF6
:1019200080B485B000AF78607B681B0C03F1804306
:1019300003F58E23FB60FB68FA6811687A6892B23F
:10194000012000FA02F2D2430A401A6000BF1437A5
:10195000BD465DF8047B704780B483B000AF78600B
:101960000849084B1B6823F440227B689B0403F45E
:10197000402313430B6000BF0C37BD465DF8047B6A
:10198000704700BF0070044080B483B000AF78603F
:101990000B490B4B03F5805304331B6823F440328F
:1019A0007B681B0403F440331A4301F5805304336E
:1019B0001A6000BF0C37BD465DF8047B704700BF5E
:1019C0000070044080B485B000AF786039607B68F7
:1019D0001B78FB73FB7B03F05F03FB733B681A7898
:1019E000FB7B1343FB737B68FA7B1A7000BF1437D1
:1019F000BD465DF8047B704780B485B000AF786069
:101A00000B46FB707B681B78FB73FB7B23F00F039B
:101A1000FB73FA7BFB781343FB737B68FA7B1A70CA
:101A200000BF1437BD465DF8047B704780B582B0B7
:101A300000AF194B1B7BDBB203F00303012B12D069
:101A4000012B02D3022B1CD01EE0144B1B68002B71
:101A500005D1134B134AE821134800F06FFD0F4BDB
:101A60001B687B6013E0114B1B68002B05D1104BEA
:101A70000C4AED210C4800F061FD0C4B1B687B60AB
:101A800005E00C4B7B6002E000237B6000BF7B68BD
:101A900018460837BD4680BD00400640044D002072
:101AA00098410200E0410200A4410200004D0020E4
:101AB000BC410200006CDC0280B582B000AFFFF7D1
:101AC000B5FF78607B68002B01D17B684EE0294B25
:101AD0001B78DBB203F03803DB08FB70FB787A6815
:101AE00022FA03F37B60234B5B78DBB203F0300315
:101AF0001B09BB701F4B1B7BDBB203F003037B7026
:101B0000BB78002B02D07B78002B02D07B78022B95
:101B10002BD1FB78072B25D801A252F823F000BF68
:101B2000411B0000411B0000411B0000411B000045
:101B3000411B0000411B0000491B0000571B000017
:101B40007B685B097B6010E07B680B4AA2FB032388
:101B50001B097B6009E07B68084AA2FB0323DB08C2
:101B60007B6002E000237B6000BF7B68184608377B
:101B7000BD4680BD00400640CDCCCCCCABAAAAAAC5
:101B800080B400AF0C4B9B79DBB203F00103002B58
:101B900002D10A4B1B6809E0094B1A68064B1B7AF5
:101BA000DBB203F00E035B0822FA03F31846BD46CE
:101BB0005DF8047B704700BF004006400400002031
:101BC0000800002080B500AF074B9B79DBB203F023
:101BD00010031B09002B03D1FFF76EFF034601E042
:101BE000024B1B68184680BD0040064004000020E0
:101BF00080B500AFFFF71AFF0346184680BD00BF4F
:101C000080B485B000AF78607B6849F69702934254
:101C100002D80023FB7308E07B68074A934202D88E
:101C20000123FB7301E00223FB73FB7B184614378F
:101C3000BD465DF8047B704700127A0080B500AFA6
:101C40000B4B1B78DBB25BB2002B0DDA094B1B6828
:101C5000002B06D1084B094A4FF4B671084800F032
:101C60006DFC044B1B6800E00023184680BD00BFDC
:101C700000500640044D002098410200F841020047
:101C8000A441020080B582B000AF194B1B6803F479
:101C900040239B0C022B0FD0032B1CD0002B1ED1FA
:101CA000FFF7CCFF0346B3F5004F02D14FF40043DA
:101CB00000E000237B6015E00E4B1B68002B06D173
:101CC0000D4B0E4A4FF4C0710D4800F037FC094B24
:101CD0001B687B6006E04FF47A737B6002E00023B0
:101CE0007B6000BF7B6818460837BD4680BD00BFDB
:101CF00000700440004D0020BC4102001042020070
:101D0000A441020080B582B000AF114B03F58053AF
:101D100004331B6803F440331B0C012B08D0012B48
:101D200002D3032B08D00AE000F088F9786009E0BC
:101D300000F0EAF9786005E0064B7B6002E00023E2
:101D40007B6000BF7B6818460837BD4680BD00BF7A
:101D500000700440006CDC0280B584B000AF034624
:101D6000FB71FB79132B00F28E8001A252F823F055
:101D7000C11D0000871E0000E11D0000011E0000C3
:101D8000211E0000871E0000411E0000491E0000A9
:101D9000511E0000871E0000871E0000591E000013
:101DA000611E0000691E0000711E0000871E0000F9
:101DB000871E0000871E0000791E00007F1E0000A5
:101DC00000F00AF90246344B03F5825304331B68D2
:101DD00003F070431B0F0133B2FBF3F3FB6055E0DC
:101DE00000F0FAF802462C4B03F5825304331B68CB
:101DF00003F070631B0E0133B2FBF3F3FB6045E0AD
:101E000000F0EAF80246244B03F5825304331B68C2
:101E100003F470031B0D0133B2FBF3F3FB6035E0F9
:101E200000F0DAF802461C4B03F5825304331B68BA
:101E300003F470231B0C0133B2FBF3F3FB6025E0CA
:101E4000FFF760FFF86021E0FFF71CFFF8601DE07E
:101E5000FFF7F4FEF86019E000F03EF9F86015E0D5
:101E600000F028F9F86011E000F0E8F8F8600DE003
:101E700000F04AF9F86009E0084BFB6006E04FF417
:101E80007A73FB6002E00023FB6000BFFB6818462A
:101E90001037BD4680BD00BF00700440006CDC02FE
:101EA00080B582B000AF78600A497B685A6801F556
:101EB000825304331A607B681B781846FFF764FD71
:101EC0007B685B781846FFF747FD00BF0837BD46C3
:101ED00080BD00BF0070044080B584B000AF786062
:101EE00039600123FB733548FFF71AFD7B68002B2F
:101EF0000CD13349324B03F5805304331B6823F470
:101F0000802201F5805304331A603DE03B682D4A7E
:101F100093421AD02B4A934203D82B4A93421BD0A8
:101F200021E02A4A934209D0294A93421BD1244BEB
:101F300003F58253083309221A6017E0204B03F59A
:101F40008253083302221A6010E01D4B03F58253BE
:101F5000083305221A6009E0194B03F58253083350
:101F600000221A6002E00023FB7300BF1449144BE7
:101F700003F5805304331B6823F4E0227B681A4383
:101F800001F5805304331A600C48FFF7ADFC7B6801
:101F9000B3F5E02F0DD10F4B032283F844210D4AF6
:101FA0000C4B93F84031DBB263F07F03DBB282F875
:101FB0004031FB7B18461037BD4680BD12003410FF
:101FC0000070044000A24A04006CDC0200D8B8058E
:101FD000000E27070020074080B582B000AF164BE7
:101FE0009B79DBB203F00C039B083B603B68032B3F
:101FF0001AD801A252F823F0112000001920000085
:10200000212000000920000000F07EF878600EE03A
:1020100000F014F878600AE0FFF7B2FD786006E09F
:10202000FFF704FD786002E000237B6000BF7B685F
:1020300018460837BD4680BD0040064080B582B0D6
:1020400000AF1A4B5B78DBB203F00203002B06D122
:10205000164B9B79DBB203F02003002B01D0002349
:1020600020E0FFF7AFFD78607B68002B01D17B6833
:1020700018E00E4BDB78DBB203F060035B09FB700A
:102080000A4BDB78DBB203F08003DB09BB70FA7824
:10209000BB7807495200134431F813301A467B6865
:1020A00003FB02F318460837BD4680BD00400640DA
:1020B0002842020080B500AF064B1B78DBB203F06C
:1020C0000203002B01D1002302E0FFF759FD034674
:1020D000184680BD0040064080B582B000AFFFF7D3
:1020E00071FD78607B68002B08D0FFF775FF034611
:1020F000DA087B689A4201D37B6800E00023184627
:102100000837BD4680BD00BF80B582B000AF184B18
:102110009B79DBB203F04003002B01D1002322E0C6
:10212000FFF766FD78607B68002B06D1114B124AE1
:1021300040F27E21114800F001FA0D4B1B79DBB211
:1021400003F01F0301337A68B2FBF3F37B60084BA3
:102150005B79DBB203F01F0303F118027B6802FB1B
:1021600003F37B607B6818460837BD4680BD00BF1F
:1021700000400640CC41020038420200A441020067
:1021800080B485B000AF0346FB71174B1B7BDBB2FD
:1021900003F00302FB799A4202D00123FB7301E0B2
:1021A0000023FB731049104B1B7BDBB223F00303AE
:1021B000DAB2FB7903F00303DBB21343DBB20B7338
:1021C000FB7B002B09D040F2DC53BB6000E000BF7A
:1021D000BB685A1EBA60002BF9D100231846143789
:1021E000BD465DF8047B70470040064080B485B072
:1021F00000AF0346FB710B46BB7113467B713B4B33
:102200009B79DBB203F00C039B08FB60374B9B7997
:10221000DBB203F00103FB72344B1B7ADBB203F039
:102220000E035B08BB727A79BB7A9A422CD0FB7A98
:10223000012B19D1FB68012B06D02C4B1B78DBB28C
:1022400003F00203002B0FD0284A284B5B78DBB247
:1022500023F00103DBB2537000BF244B9B79DBB248
:1022600003F00103002BF8D12049204B1B7ADBB28D
:1022700023F02F03DAB27B795B00DBB203F00E03AD
:10228000DBB21343DBB20B721849184B5B78DBB23D
:1022900023F00103DAB2BB7903F00103DBB213438D
:1022A000DBB24B701149114B1B78DBB223F00303F7
:1022B000DAB2FB791343DBB20B70FB68012B04D05D
:1022C000FB7903F00203002B08D000BF074B9B797A
:1022D000DBB203F00102BB799A42F7D10023184622
:1022E0001437BD465DF8047B704700BF00400640D0
:1022F00080B584B000AF78607B68002B06D11D4BA1
:102300001D4A40F23E311D4800F018F90023FB73CE
:102310007B685B7803F01F03DAB2FB7B1343FB732C
:10232000174AFB7B13711649154B5B79DBB223F01F
:102330001F03DAB27B689B7803F01F03DBB2134301
:10234000DBB24B710E490E4B1B79DAB27B681B78FE
:102350001343DBB243F04003DBB20B7100BF084B09
:102360009B79DBB203F04003002BF8D000BF10379D
:10237000BD4680BDD84102004C420200A44102008B
:102380000040064080B584B000AF78607B681B6871
:102390001846FFF735FC0346FB737B681B7919462B
:1023A0001948FFF729FB7B68063319461648FFF7E3
:1023B00009FB1649154B5B78DBB223F03C03DAB21C
:1023C000FB7B1B01DBB203F03003DBB21343DAB259
:1023D0007B685B791343DBB24B707B685B79002BC6
:1023E0000DD0094B1B78DBB25BB2002B07DA00BFC4
:1023F000064B9B79DBB203F00203002BF8D000BF41
:102400001037BD4680BD00BF00500640004006406A
:1024100080B582B000AF03463960FB713B68002B8A
:1024200006D1254B254A40F2CA51254800F086F8CE
:10243000244A244B5B78DBB223F00203DBB25370F7
:10244000204A204B1B78DBB203F03B03DBB263F086
:102450007F03DBB2137000BF1A4B9B79DBB203F032
:102460001C03082BF8D1174A164B5B79DBB223F01B
:102470004003DBB2537100BF124B9B79DBB203F018
:102480002003002BF8D13868FFF732FF0D4A0D4BBF
:102490005B79DBB243F04003DBB2537100BF094B01
:1024A0009B79DBB203F02003002BF8D00023184601
:1024B0000837BD4680BD00BFD8410200604202001F
:1024C000A44102000040064080B582B000AF034640
:1024D0003A60FB710B46BB713B68002B06D1134B76
:1024E000134A40F27461134800F028F8FB7918464B
:1024F000FFF746FEBB7939681846FFF789FF0E4A99
:102500000D4B1B78DBB203F03F03DBB2137000BF4F
:10251000094B9B79DBB203F00C039B08032BF7D12B
:10252000002318460837BD4680BD00BFD8410200D1
:1025300074420200A44102000040064080B586B00B
:1025400002AFF860B9607A603B607B680093BB685B
:10255000FA68396802481DF041FE00BEFDE700BF81
:102560008842020080B485B000AF78607B681B0CA5
:1025700003F1804303F58E23FB60FB68FA68116862
:102580007A6892B2012000FA02F20A431A6000BF90
:102590001437BD465DF8047B704700BF80B483B03C
:1025A00000AF78600B46FB70FB78002B06D07B6891
:1025B0001B6823F480427B681A6005E07B681B6817
:1025C00043F480427B681A6000BF0C37BD465DF85B
:1025D000047B704780B483B000AF78607B68DB6AAF
:1025E00018460C37BD465DF8047B704780B483B055
:1025F00000AF786039607B683A68DA6200BF0C37F8
:10260000BD465DF8047B704780B483B000AF78604E
:1026100039607B681A6B3B68DB431A407B681A633E
:1026200000BF0C37BD465DF8047B704780B483B0B3
:1026300000AF78600B46FB707B681B6823F000429C
:10264000FB78DB071A437B681A6000BF0C37BD4676
:102650005DF8047B704700BF80B483B000AF786042
:102660007B681B68DB0FDBB218460C37BD465DF894
:10267000047B704780B483B000AF78607B681B68D0
:1026800023F001027B681A6000BF0C37BD465DF87D
:10269000047B704780B483B000AF78607B681B68B0
:1026A00043F001027B681A6000BF0C37BD465DF83D
:1026B000047B704780B483B000AF78600B46FB703A
:1026C0001346BB707B681B6823F44062FB78DB0217
:1026D00003F400631A43BB789B0203F480631A433C
:1026E0007B681A6000BF0C37BD465DF8047B7047FD
:1026F00080B483B000AF78607B681B78DA077B68B2
:102700005B781B0703F0E0431A437B689B781B044C
:1027100003F47C131A437B68DB78DB0603F0006369
:102720001A437B681B799B0603F0806313431846AA
:102730000C37BD465DF8047B704700BF80B483B0A2
:1027400000AF78607B689B6B18460C37BD465DF820
:10275000047B704780B584B000AF78600023FB60D5
:1027600009E00E4AFB6852F823207B689A4206D0A3
:10277000FB680133FB60FB68022BF2D900E000BF6D
:10278000FB68022B05D9064B064A9C210648FFF739
:10279000D5FEFB6818461037BD4680BD6843020071
:1027A000804302002C440200A443020080B588B09C
:1027B00002AFF860B9607A60BB68002B05D1544B5A
:1027C000544AA3215448FFF7B9FEF868FFF7C2FF47
:1027D0000246524B53F822301846FFF7C3FE012140
:1027E000F868FFF7DBFEF868FFF754FF0121F8688F
:1027F000FFF71CFFFB681B6823F08A4323F44C534C
:102800007B61BB689B7F9B0703F080427B691A4317
:10281000BB6893F820309B0603F080631A43BB68C3
:10282000DB7F1B0603F080731A43BB6893F82130EB
:102830001B0203F440731A43FB681A60BB68197FDC
:10284000BB685B7F1A46F86800F06CF8BB681978C3
:10285000BB685A687B68F86800F08CF80346002B68
:1028600005D12F4B2B4ABC212B48FFF767FEBB68D5
:102870001B78FA6802339B0013445B6823F0FE4325
:102880007B61BB681B781846BB689B68013BDB0615
:1028900003F0F0427B691A43BB681B7B9B0603F085
:1028A00080631A43BB685B7B5B0603F000731A43CB
:1028B000BB689B7B1B0603F080731A43F968831C7B
:1028C0009B000B445A60BB681978BB681B69009376
:1028D0007B680122F86800F047F9BB681978BB688B
:1028E0005B6900937B680222F86800F03DF9BB68E1
:1028F0001978BB689B6900937B680322F86800F035
:1029000033F9F868FFF7B6FE00BF1837BD4680BD43
:10291000BC43020040440200A4430200744302008E
:10292000CC43020080B485B000AF78600B46FB70EA
:102930001346BB707B681B68FB60BB78012B07D11B
:10294000FB781B0403F47C13FA681343FB6007E075
:10295000FB781B0403F47C13DB43FA681340FB6031
:102960007B68FA681A6000BF1437BD465DF8047BC7
:10297000704700BF80B590B000AFF8607A603B60F0
:102980000B46FB72F868FFF767FE034683F001030E
:10299000DBB2002B01D0002371E07B68FB614FF0BC
:1029A000FF333B620023BB6300233B630123BB6215
:1029B00000237B620023FB6341E000237B6335E05F
:1029C0000123FB6229E03B68FA6A02FB03F22E490D
:1029D000FB6B51F823302D48796B50F8211001FB27
:1029E00003F3B2FBF3F3BB61FA69BB699A4211D3FB
:1029F000FA69BB69D31A7B613A6A7B699A4209D941
:102A00007B693B62FB6BBB637B6B3B63BB697B623C
:102A1000FB6ABB62FB6A0133FB62FB6A022B02D8D2
:102A20003B6A002BCFD17B6B01337B637B6B0F2B1E
:102A300002D83B6A002BC3D1FB6B0133FB63FB6BFA
:102A4000032B02D83B6A002BB7D1FB7AFA6802331A
:102A50009B0013445A680E4B13403B61FB7ABA6AE1
:102A6000013AD1073A691143BA6B120411433A6B28
:102A70000A43F96802339B000B445A607B6A18468C
:102A80004037BD4680BD00BFC8420200D8420200A8
:102A9000F0FFFC7F80B584B000AFF8607A603B60E7
:102AA0000B46FB72F868FFF7D7FD0346002B56D0A4
:102AB0003B7E022B1ED0032B37D0012B00D04EE0E3
:102AC000F87AFB7AFA6802339B0013445B6823F4BC
:102AD000400323F470437A68920502F440021A43DB
:102AE0003B681B039BB21A43F968831C9B000B4491
:102AF0005A6034E0F87AFB7AFA6802339B00134498
:102B00005B6823F4401323F470637A68120502F4BF
:102B100040121A433B681B0203F470631A43F968BE
:102B2000831C9B000B445A6019E0F87AFB7AFA6820
:102B300002339B0013445B6823F4402323F0F0032B
:102B40007A68920402F440221A433B681B01DBB20C
:102B50001A43F968831C9B000B445A6000BF00BFF6
:102B60001037BD4680BD00BF80B590B002AFF860A1
:102B70007B600B46FB721346BB72F868FFF76CFD77
:102B8000034683F00103DBB2002B01D0002373E086
:102B90004FF0FF333B6203233B630F23BB62384A92
:102BA0007B68B2FBF3F337493A6B51F8222002FB02
:102BB00003F33549BA6A51F8222002FB03F39B085C
:102BC0007B62324A7B68B2FBF3F35B00FB61FA691C
:102BD0003B6C9A4209D3F97ABB7A00930023002216
:102BE000F868FFF757FFFB6946E000237B6334E09A
:102BF0000023FB6228E0224A7B68B2FBF3F3214901
:102C00007A6B51F8222002FB03F31F49FA6A51F84C
:102C1000222002FB03F39B08BB61BA693B6C9A421A
:102C20000FD3BA693B6CD31A7B613A6A7B699A42CB
:102C300007D97B693B627B6B3B63FB6ABB62BB6909
:102C40007B62FB6A0133FB62FB6A0F2B02D83B6A93
:102C5000002BD0D17B6B01337B637B6B032B02D8C2
:102C60003B6A002BC4D1F97ABB7A0093BB6A3A6BFA
:102C7000F868FFF70FFF7B6A18463837BD4680BDFE
:102C800000286BEE184302002843020000CA9A3B5A
:102C900080B58EB000AF786039603B68002B06D1FC
:102CA000A44BA54A40F24521A448FFF747FC002366
:102CB000FB860023FB8300237B773B689B68002B0C
:102CC00001D104231DE27868FFF7E4FC9C49786891
:102CD000FFF79AFC012201217868FFF7EBFC994984
:102CE0007868FFF783FC3B68DB681B0903F00F0380
:102CF000012202FA03F3DBB2BB730023FB73002350
:102D00003B743B68DB68DBB203F00F03DBB27B7321
:102D10003B68DB6803F48013002B14BF01230023FE
:102D2000DBB23B7307F10C031846FFF7E1FCB86117
:102D30000123FB733B68DB6803F40013002B14BF13
:102D400001230023DBB23B7307F10C031846FFF7A6
:102D5000CFFC78617B7B7A6802339B0013445B680D
:102D600003F0F043DB0EDBB20133FB743B681B68FE
:102D70003B633B685B68FB623B689B68BB623B688C
:102D80009B687B627B681B6803F48053002B05D132
:102D90007B681B6803F40053002B02D001233B62C5
:102DA00014E07B68684A93420ED07B68674A93427E
:102DB00008D07B68664A934201D1012305E04FF0B9
:102DC000FF3302E0012300E004233B627868FFF751
:102DD00051FCFB7C082B00F28F81A1E0BB6A012B28
:102DE00053D104E04FF000717868FFF7FFFB78687B
:102DF000FFF7F0FB034603F00073002BF2D03B6BB0
:102E0000002B0AD03B6B1B781A467B691A437B6800
:102E10005A633B6B01333B6304E07A7F7B691A435F
:102E20007B685A634FF000717868FFF7DFFBBB6A7D
:102E3000013BBB6220E07868FFF7CCFB034603F45C
:102E40000033002B18D0FB6A002B0AD07868FFF7FC
:102E500075FC0346DAB2FB6A1A70FB6A0133FB6247
:102E600002E07868FFF76AFC7B6A013B7B624FF403
:102E700000317868FFF7BAFB7B6A002BDBD14FE0AB
:102E80004FF000717868FFF7B1FB7868FFF7A2FB9D
:102E9000034603F00073002BF2D03B6B002B0AD0EB
:102EA0003B6B1B781A46BB691A437B685A633B6BC2
:102EB00001333B6304E07A7FBB691A437B685A6342
:102EC000BB6A013BBB624FF000717868FFF78EFB75
:102ED00020E07868FFF77EFB034603F40033002B05
:102EE00018D0FB6A002B0AD07868FFF727FC03464E
:102EF000DAB2FB6A1A70FB6A0133FB6202E078689F
:102F0000FFF71CFC7B6A013B7B624FF40031786861
:102F1000FFF76CFB7A6ABB6AD21A3B6A9A42D8D234
:102F2000BB6A002B7FF45AAFEAE0BB6A022B00F2C7
:102F3000878014E0F043020050440200A4430200E2
:102F400000000A9A00000ADA00C0024000D00240E5
:102F500000C00A404FF000717868FFF747FB7868BF
:102F6000FFF738FB034603F00073002BF2D03B6BF6
:102F7000002B14D03B6B1B78FB863B6B01333B6310
:102F8000BB6A012B0DD93B6B1B789BB21B029AB21B
:102F9000FB8E1343FB863B6B01333B6301E07B7F7E
:102FA000FB86FA8E7B691A437B685A634FF0007187
:102FB0007868FFF71BFB0023BB6238E07868FFF7F7
:102FC00009FB034603F40033002B30D07868FFF789
:102FD000B5FB0346FB837B6A012B16D0FB6A002BF3
:102FE0000FD0FB8BDAB2FB6A1A70FB6A0133FB620B
:102FF000FB8B1B0A9BB2DAB2FB6A1A70FB6A0133C5
:10300000FB627B6A023B7B620CE0FB6A002B06D012
:10301000FB8BDAB2FB6A1A70FB6A0133FB627B6AD4
:10302000013B7B624FF400317868FFF7DFFA7B6A7F
:10303000002BC3D160E04FF000717868FFF7D6FA3B
:103040007868FFF7C7FA034603F00073002BF2D04D
:103050003B6B002B11D03B6B1B78FB863B6B01332A
:103060003B633B6B1B789BB21B029AB2FB8E1343F4
:10307000FB863B6B01333B6301E07B7FFB86FA8E73
:10308000BB691A437B685A63BB6A023BBB624FF061
:1030900000717868FFF7AAFA27E07868FFF79AFAD4
:1030A000034603F40033002B1FD07868FFF746FB7C
:1030B0000346FB83FB6A002B0FD0FB8BDAB2FB6A63
:1030C0001A70FB6A0133FB62FB8B1B0A9BB2DAB2FC
:1030D000FB6A1A70FB6A0133FB627B6A023B7B620C
:1030E0004FF400317868FFF781FA7A6ABB6AD31A25
:1030F0005A083B6A9A42D0D2BB6A002B7FF415AFC4
:10310000002318463837BD4680BD00BF80B582B069
:1031100000AF786039607868FFF79EFA0346002BAD
:1031200005D0074B1B6839687868984704E0054B61
:103130001B6839687868984700BF0837BD4680BD6E
:10314000D4020020D802002080B500AF094B1B68D4
:10315000002B06D1084B094A40F256610848FFF798
:10316000EDF9044B1B6819460648FFF7CFFF00BF77
:1031700080BD00BFC8020020FC4302006C44020076
:10318000A443020000C0024080B500AF094B5B6859
:10319000002B06D1084B094A40F25E610848FFF750
:1031A000CDF9044B5B6819460648FFF7AFFF00BF37
:1031B00080BD00BFC80200200C440200844402000D
:1031C000A443020000D0024080B500AF094B9B68C9
:1031D000002B06D1084B094A40F266610848FFF708
:1031E000ADF9044B9B6819460648FFF78FFF00BFF7
:1031F00080BD00BFC80200201C4402009C440200A5
:10320000A443020000C00A4090B589B000AF7860C6
:103210007B68002B06D14E4B4E4A40F235314E486A
:10322000FFF78CF97B689B687A68127CDA777B6899
:10323000DB68002B0CD17B681B68002B08D07B68F7
:103240001C687B685968002301227868A0477BE0EE
:103250007B689A687B681B7C5B01134403F5805391
:1032600018331B687B617B689A687B681B7C5B01F9
:10327000134403F580531C331B889BB203F0800377
:10328000002B14BF01230023FB747B68DB681A4604
:103290007B699B1A7B617B695B09FB60FB7C002B74
:1032A00002D0FB68FB760EE0FB68002B04D0FB68C5
:1032B000DBB2013BDBB205E07B681B7D5BB2DBB2BE
:1032C000013BDBB2FB76FB7E7A68527C52B29342C2
:1032D0000FD17B68DB7C5AB27B681B7D5BB29A4264
:1032E00004D17B68DB7C5BB2FB6112E00023FB61F5
:1032F0000FE0FB7E7A68527C52B29B1AFB61FB693D
:10330000002B06DA7B681B7D5BB21A46FB6913440F
:10331000FB6197F91B207B685A747B68DB7C5BB28E
:10332000DAB2FB69DBB2D31ADBB25AB27B68DA7469
:103330007B681B68002B07D07B681C687B6859681A
:10334000FB69FA7C7868A04700BF2437BD4690BD72
:10335000AC450200F8460200D844020080B500AF38
:10336000034B1B681846FFF74FFF00BF80BD00BF2F
:10337000DC02002080B500AF034B5B681846FFF706
:1033800043FF00BF80BD00BFDC02002080B500AF5E
:10339000034B9B681846FFF737FF00BF80BD00BF97
:1033A000DC02002080B500AF034BDB681846FFF756
:1033B0002BFF00BF80BD00BFDC02002080B500AF46
:1033C000034B1B691846FFF71FFF00BF80BD00BFFE
:1033D000DC02002080B500AF034B5B691846FFF7A5
:1033E00013FF00BF80BD00BFDC02002080B500AF2E
:1033F000034B9B691846FFF707FF00BF80BD00BF66
:10340000DC02002080B500AF034BDB691846FFF7F4
:10341000FBFE00BF80BD00BFDC02002080B500AF16
:10342000034B1B6A1846FFF7EFFE00BF80BD00BFCD
:10343000DC02002080B500AF034B5B6A1846FFF743
:10344000E3FE00BF80BD00BFDC02002080B500AFFE
:10345000034B9B6A1846FFF7D7FE00BF80BD00BF35
:10346000DC02002080B500AF034BDB6A1846FFF793
:10347000CBFE00BF80BD00BFDC02002080B500AFE6
:10348000034B1B6B1846FFF7BFFE00BF80BD00BF9C
:10349000DC02002080B500AF034B5B6B1846FFF7E2
:1034A000B3FE00BF80BD00BFDC02002080B500AFCE
:1034B000034B9B6B1846FFF7A7FE00BF80BD00BF04
:1034C000DC02002080B500AF034BDB6B1846FFF732
:1034D0009BFE00BF80BD00BFDC02002080B483B033
:1034E00000AF0346FB71094997F907305B09FA7988
:1034F00002F01F02012000FA02F241F8232000BF6F
:103500000C37BD465DF8047B704700BF00E100E06A
:1035100080B485B000AF78607B681B0C03F18043FA
:1035200003F58E23FB60FB68FA6811687A6892B233
:10353000012000FA02F20A431A6000BF1437BD46A8
:103540005DF8047B704700BF80B582B000AF0346D2
:10355000FB7197F9073013F1800F05D097F9073009
:103560001846FFF7BBFF00E000BF0837BD4680BD2F
:1035700080B483B000AF78607B685B6A43F001027F
:103580007B685A6200BF0C37BD465DF8047B70470C
:1035900080B483B000AF78607B685B6C03F07E031F
:1035A000002B14BF01230023DBB218460C37BD46A5
:1035B0005DF8047B704700BF80B483B000AF7860D3
:1035C0000B46FB70FB78002B06D07B685B6A43F0F0
:1035D0000C027B685A6205E07B685B6A23F00C0290
:1035E0007B685A6200BF0C37BD465DF8047B7047AC
:1035F00080B483B000AF786039607B689A683B68BC
:103600001A437B689A6000BF0C37BD465DF8047BA7
:10361000704700BF80B584B000AF78600023FB60C6
:1036200006E00D4A7B689A4206D0FB680133FB60D6
:10363000FB68002BF5D000E000BFFB68002B06D034
:10364000064B074A4FF48C710648FEF777FFFB687C
:1036500018461037BD4680BD00000C400C470200E4
:10366000084A02003047020080B582B000AF78609F
:103670007B68002B06D10E4B0E4A4FF490710E481A
:10368000FEF75CFF1822002178681EF04BFE7B6875
:1036900001229A727B680122DA727B6801221A7316
:1036A0007B6840F2EE521A8100BF0837BD4680BDEC
:1036B000484702001C4A02003047020090B589B01A
:1036C00002AFF860B9607A603B60BB68002B06D13E
:1036D000684B694A4FF49B716848FEF72FFF7B687F
:1036E000002B06D1664B644A40F237116348FEF75F
:1036F00025FF3B68002B06D1624B5F4A4FF49C715B
:103700005E48FEF71BFF3B68DB68002B06D15E4B73
:10371000594A40F239115948FEF710FF3B681B69BE
:10372000002B06D1594B544A4FF49D715348FEF774
:1037300005FF3B685B69002B06D1554B4E4A40F2B2
:103740003B114E48FEF7FAFE3B689B69002B06D101
:10375000504B494A4FF49E714848FEF7EFFEBB6A52
:10376000002B06D14C4B444A40F23D114348FEF732
:10377000E5FE3B685B68FF2B06D8484B3E4A4FF49A
:103780009F713E48FEF7DAFE7B681B6803F4007306
:10379000002B10D03B689B683A68528802FB03F309
:1037A00040F2F252934228D83D4B334A40F2431143
:1037B0003248FEF7C3FE3B689B683A68528802FBBA
:1037C00003F340F2EE52934206D8364B2A4A40F2B7
:1037D00047112A48FEF7B2FE3B685B683A681288D8
:1037E00002FB03F37A681289934206D82E4B224AD1
:1037F0004FF4A4712148FEF7A1FEF868FFF70AFF15
:1038000078612A4B1846FFF783FEF868FFF7B0FE91
:103810003B6818693B6899693B689A683B685B88B4
:1038200000F012FA3B68D8683B6859693B685A68EF
:103830003B681B881C467B685B6803F04073002B69
:1038400014BF01230023DBB20093234600F04EFA9D
:10385000FB6A0093BB6A3A687968F86800F0B0F8D0
:103860003B687A68B968F86800F042F800BF1C3716
:10387000BD4690BD50470200344A02003047020066
:103880004847020058470200684702008C47020080
:10389000B0470200CC470200E8470200F0470200B0
:1038A0002848020098480200EC48020000002C1052
:1038B00080B584B000AFF860B9607A60FB68002B17
:1038C00006D1084B084A40F275110848FEF736FE4B
:1038D000FB68BA689A61FB687A68DA6100BF1037E2
:1038E000BD4680BD50470200404A020030470200FA
:1038F00080B586B000AFF860B9607A603B60F86868
:10390000FFF788FE786120220021B8681EF00AFDCA
:103910003B68DA68BB681A603B68DA68BB685A6063
:103920003B681A69BB689A603B681A69BB68DA60D1
:103930003B685A68BB681A613B689A68BB685A6101
:1039400017497B69BA6841F823207B685B6803F0FC
:103950004063002B06D0134B134A1A6053231846BA
:10396000FFF7F2FD7B685B6803F04073002B06D025
:103970000E4B0F4A1A6054231846FFF7E5FD7B688B
:103980005A680C4B1340002B06D00B4B0B4A1A60A5
:1039900055231846FFF7D8FD00BF1837BD4680BD38
:1039A0001C03002020030020BD430000240300204E
:1039B0001D44000000007C60280300207D440000BE
:1039C00080B58AB000AFF860B9607A603B600023D0
:1039D0007B620023FB610023BB61BB681B687B61CA
:1039E000BB681B893B627B6903F40073002B07D023
:1039F0003B6A40F2EE52934202D840F2F2533B62ED
:103A00007B6903F00203002B02D04FF0804200E0FC
:103A100000227B6903F00103002B02D04FF4004326
:103A200000E000231A437B6903F00103002B01D05F
:103A3000202300E000231A437B6903F00403002BDA
:103A400002D04FF4805300E000231A437B6903F057
:103A50000803002B01D0102300E000231A437B69E8
:103A600003F08003002B01D0082300E000231A4359
:103A7000BB689B7A1B0203F480731A43BB68DB7A32
:103A8000002B02D14FF4007300E000231A433B6A7D
:103A900019046C4B0B40134343F4804343F004037D
:103AA0007B62BB681B7B002B03D17B6A43F0020364
:103AB0007B62BB681B6803F48073002B0BD0BB6870
:103AC0009B7A002B07D17B6A43F001037B627B6A00
:103AD00023F002037B62FB687A6AC3F88420FB68E8
:103AE000D3F8C43023F48273FB61BB681B7B9B005B
:103AF00003F004027B6903F01003002B02D04FF4A3
:103B0000807300E000231343FA691343FB61FB68F1
:103B1000FA69C3F8C420BB689B7B1A46FB68C3F8EC
:103B2000C021BB685B7B1A46FB68C3F8C4217B6974
:103B300003F00103002B14D0BB681B8A1A46FB68F4
:103B4000C3F8EC20BB689B7C3B61BB68DB7C1B043F
:103B500003F4F8133A6913433B61FB683A69C3F80D
:103B600094217B6903F02003002B0DD0BB685B7DA3
:103B700003F03F02FB68C3F84421BB681B7D1A4673
:103B8000FB68C3F8902108E0FB684FF48072C3F82B
:103B90004421FB680022C3F89021BB689B7B03F0A3
:103BA0001803002B04D0FB684FF48072C3F8442143
:103BB000BB685B7B03F00603002B03D0FB6800228D
:103BC000C3F890217B681B691A46FB68C3F88421FF
:103BD0007B68DB681A46FB68C3F880217B685A68FB
:103BE000FB68C3F888213968F86800F0D3F8F868F2
:103BF000FFF7CEFC034683F00103DBB2002B0DD0B0
:103C0000BB681B6803F04003002B14BF0123002393
:103C1000DBB21A46396BF86800F0ECF8BB685B68F9
:103C20001946F868FFF7E4FCFB685B6ABB61BB6997
:103C300043F48173BB61FB68BA695A6200BF2837DD
:103C4000BD4680BD0000FF3F80B586B000AFF86084
:103C5000B9607A603B60FB68002B06D11F4B204A9D
:103C60004FF40A711F48FEF769FCBB68002B06D1B0
:103C70001D4B1B4A40F229211A48FEF75FFCFB68E6
:103C80003B6100237B6121E07B697A6802FB03F3DF
:103C9000BA681A443B695A603B6900221A803B6942
:103CA0004FF480625A803B685A1E7B699A4207D162
:103CB0003B695B889BB243F400539AB23B695A80DC
:103CC0003B6908333B617B6901337B617A693B68FF
:103CD0009A42D9D300BF1837BD4680BD4049020083
:103CE000544A0200304702005049020080B586B0B5
:103CF00000AFF860B9607A603B60FB68002B06D1CA
:103D0000204B214A40F24B212048FEF717FCBB68AC
:103D1000002B06D11E4B1C4A4FF413711B48FEF7B3
:103D20000DFCFB687B6100233B6100233B6121E0CC
:103D30003B697A6802FB03F3BA681A447B695A60EC
:103D40007B6900221A807B694FF400425A803B68ED
:103D50005A1E3B699A4207D17B695B889BB243F448
:103D600000539AB27B695A807B6908337B613B6957
:103D700001333B613A693B689A42D9D300BF183797
:103D8000BD4680BD64490200704A0200304702000F
:103D90007449020080B485B000AF786039603B6838
:103DA0001B781A063B6801331B781B041A433B68D7
:103DB00002331B781B0213433A6803321278134311
:103DC000FB607B68FA68C3F8E4203B6804331B7827
:103DD0001B023A68053212781343FB60FB681A0431
:103DE0007B68C3F8E82000BF1437BD465DF8047B4C
:103DF000704700BF80B588B000AFF860B960134667
:103E0000FB71BB68002B06D11A4B1B4A40F2AF2155
:103E10001A48FEF793FB0023FB610023BB610023DC
:103E20007B61BB68164AA2FB03235B0DBB61154A8D
:103E3000BB68B2FBF3F303F109021249BB68B1FBA3
:103E4000F3F3B2FBF3F3013BFB61BB695B0003F0EF
:103E50007E02FB79DB01DBB21A43FB691B0203F430
:103E6000E06313437B61FB687A695A6400BF2037C3
:103E7000BD4680BD884902008C4A020030470200DE
:103E80006BCA5F6B00CA9A3B80B487B000AFF86022
:103E9000B9607A60FB7000237B61FB781B0703F03D
:103EA0004052BB68DB0503F078631A437B689B04D0
:103EB00003F4F8031A433B6A9BB2134343F0804375
:103EC00043F400337B61FB687A691A6400BF1C37D6
:103ED000BD465DF8047B704780B487B000AFF860E2
:103EE000B9607A60FB7000237B61FB781B0703F0ED
:103EF0004052BB68DB0503F078631A437B689B0480
:103F000003F4F803134343F0804343F400337B612D
:103F1000FB687A691A6400BF1C37BD465DF8047BF4
:103F2000704700BF80B584B000AF786039607B68AF
:103F3000002B06D1304B314A40F246313048FEF773
:103F4000FDFA7B685B68002B06D12E4B2B4A40F2B2
:103F500047312B48FEF7F2FA3B68002B06D12A4B7B
:103F6000264A4FF452712648FEF7E8FA3B680022D1
:103F70001A604FF408437B817B685B68FB60FB68D9
:103F80005B889BB21BB2002B02DA40F6A2732FE0D3
:103F9000FB685B889AB27B8913409BB2B3F5006FD4
:103FA00011D1FB685B889BB203F03703002B02D072
:103FB0004FF47A631CE0FB681B889BB21A463B688F
:103FC0001A60002314E0FB685B889BB203F4005383
:103FD000002B03D07B681B68FB6002E0FB680833A2
:103FE000FB607B685A68FB689A42D1D140F6A273A5
:103FF00018461037BD4680BD50470200984A02005F
:104000003047020094490200B849020080B58AB0E6
:1040100000AFF860B9607A603B60BB68002B06D1E6
:10402000474B484A40F27A314748FEF787FABB6867
:104030005B68002B06D1454B424A40F27B31424837
:10404000FEF77CFA0023BB6100237B62002387F824
:104050002330BB685B68FB6100237B617B68002BBE
:104060005ED1BB685B685B887B82B968F86800F0EA
:104070006FF87B8A03F40063002B05D1BB685A6894
:10408000FB699A42EDD100E000BF7B6953E0FB6918
:104090005B889BB203F40063002B24D0012387F8D4
:1040A0002330FB691B889BB21A463B689A4215D1A4
:1040B000FB691B889BB21A467B6AD31ABB617A687C
:1040C0007B6AD018FB695B68BA6919461EF01FF954
:1040D000B968F86800F03CF87B692CE0B968F868CA
:1040E00000F036F819E0002387F823307A6A3B683D
:1040F0009A421DD27A687B6AD018FB695968BB68FE
:104100001B691A461EF003F9BB681B697A6A1344DF
:104110007B62B968F86800F01BF8BB685B68FB61FC
:1041200097F8233083F00103DBB2002BAFD100E01E
:1041300000BF40F6A17318462837BD4680BD00BFBA
:1041400050470200AC4A0200304702009449020086
:1041500080B582B000AF786039603B68002B06D133
:104160001B4B1C4A40F2DE311B48FEF7E7F93B6867
:104170005B683A685268528892B202F4005292B276
:104180005A803B685A683B685B685B889BB26FEA01
:1041900043436FEA53439BB253803B685B685B8841
:1041A0009BB203F40053002B04D03B681A683B68B1
:1041B0005A6005E03B685B6803F108023B685A609F
:1041C0007B684FF080721A6100BF0837BD4680BD22
:1041D00050470200BC4A02003047020080B588B058
:1041E00000AFF860B9607A603B60BB68002B06D115
:1041F0006B4B6C4A40F2F5316B48FEF79FF9BB6898
:10420000DB68002B06D1694B664A40F2F6316648FE
:10421000FEF794F97B68002B06D1654B614A40F2AA
:10422000F7316148FEF78AF93B6840F2EE5293425B
:1042300006D9604B5B4A4FF47E715B48FEF77EF90E
:10424000BB68DB68FB610023BB6100237B61FB690A
:104250005B889BB21BB2002B02DA40F6A3739BE093
:10426000BB685A693B689A422AD3FB695B683A6823
:10427000796818461EF04BF83B689AB2FB691A80C1
:10428000FB695B889AB24C4B13439AB2FB695A8024
:10429000FB695B889BB203F40053002B04D0BB681E
:1042A0009A68BB68DA6005E0BB68DB6803F1080266
:1042B000BB68DA60FB684FF080725A6100236BE0E4
:1042C000FB695B889BB203F40053002B04D0BB68EE
:1042D0009A68BB68DA6005E0BB68DB6803F1080236
:1042E000BB68DA603A68BB69D31A7B61BB685A69FC
:1042F0007B699A422AD2FB6958687A68BB69D118EF
:10430000BB685B691A461EF002F8BB685B699AB22B
:10431000FB691A80BB685B69BA691344BB61FB69BE
:104320005B889BB223F400639AB2FB695A80FB69F5
:104330005B889BB26FEA43436FEA53439AB2FB69CF
:104340005A80FB684FF080725A611AE0FB69586826
:104350007A68BB6913447A6919461DF0D8FF7B69F6
:104360009AB2FB691A80FB695B889AB2124B1343BD
:104370009AB2FB695A80FB684FF080725A61002341
:104380000AE0BB68DB68FB61FB695B889BB21BB220
:10439000002B95DA40F6A37318462037BD4680BD42
:1043A00050470200D44A020030470200C0490200D0
:1043B000D4490200DC4902000088FFFF90B583B0B9
:1043C00000AF786039603B68002B16D1104B114A62
:1043D0004FF4D3611048FEF7B1F87B684FF04062AC
:1043E0005A603B689B69002B07D03B689C693B681F
:1043F000DB69012239687868A0477B685B6803F055
:104400004063002BE9D100BF0C37BD4690BD00BF13
:1044100050470200E44A02003047020090B583B0E2
:1044200000AF786039603B68002B16D1104B114A01
:1044300040F2B2611048FEF781F87B684FF040729D
:104440005A603B689B69002B07D03B689C693B68BE
:10445000DB69002239687868A0477B685B6803F0F5
:104460004073002BE9D100BF0C37BD4690BD00BFA3
:1044700050470200FC4A02003047020090B585B068
:1044800000AF786039603B68002B06D11D4B1E4A97
:1044900040F2C4611D48FEF751F81D4BFB607B687C
:1044A0005B6803F40033002B14D07B684FF40032B8
:1044B0005A6000217868FFF77FF83B689B69002B02
:1044C0001CD03B689C693B68DB69032239687868CB
:1044D000A04713E07B685B68FA681340FB607B6869
:1044E000FA685A603B689B69002B07D03B689C695F
:1044F0003B68DB69022239687868A04700BF14373F
:10450000BD4690BD50470200144B020030470200E8
:1045100000007C6080B500AF044B1B68044A126841
:1045200011460448984700BF80BD00BF200300200B
:104530001C03002000000C4080B500AF044B1B683A
:10454000044A126811460448984700BF80BD00BF66
:10455000240300201C03002000000C4080B500AFA5
:10456000044B1B68044A126811460448984700BF70
:1045700080BD00BF280300201C03002000000C4069
:1045800080B500AF044B1B68044A1268114604480A
:10459000984700BF80BD00BF2C0300201C030020F3
:1045A00000000C4080B485B000AF78607B681B0CC5
:1045B00003F1804303F58E23FB60FB68FA68116802
:1045C0007A6892B2012000FA02F20A431A6000BF30
:1045D0001437BD465DF8047B704700BF80B483B0DC
:1045E00000AF78600B46FB70FB78002B0DD07B682A
:1045F0001B6823F000427B681A6000BF7B681B6861
:1046000003F48013002BF9D10CE07B681B6843F0A6
:1046100000427B681A6000BF7B681B6803F480134C
:10462000002BF9D000BF0C37BD465DF8047B704706
:1046300080B584B000AF78600023FB6006E00D4ACF
:104640007B689A4206D0FB680133FB60FB68002B55
:10465000F5D000E000BFFB68002B05D0064B074AF1
:10466000D4210748FDF76AFFFB6818461037BD469E
:1046700080BD00BF004002402C4B0200284E0200CB
:10468000544B020080B483B000AF78607B681B6835
:1046900043F080527B681A6000BF7B681B6803F0A0
:1046A0008073002BF9D000BF0C37BD465DF8047B4A
:1046B000704700BF80B483B000AF78607B681B6830
:1046C00023F080527B681A6000BF7B681B6803F090
:1046D0008073002BF9D100BF0C37BD465DF8047B19
:1046E000704700BF80B485B000AF78600B46FB70A8
:1046F0007B681B6803F00053002B14D07B685B6B56
:1047000003F070631B0EFB73FB7B0133DBB25B00BA
:10471000DBB20533FB73FA78FB7B9A4201D80123A5
:1047200002E0002300E0002318461437BD465DF880
:10473000047B704780B584B000AF78607B681B68ED
:10474000002B06DA2F4B304A4FF4AA712F48FDF7A1
:10475000F5FE00BF7B681B6803F48013002BF9D1C2
:104760007B681B6843F000727B681A6000BF7B683F
:104770001B6803F00073002BF9D17B681B6843F4BE
:10478000201343F00F037A6813607B6880225A601D
:104790007B684FF433025A630023FB730AE0FA7B11
:1047A0007B6802F508726FF0404143F82210FB7BF2
:1047B0000133FB73FB7B0F2BF1D97B686FF0404219
:1047C0001A617B686FF040425A617B686FF040422B
:1047D0009A617B686FF040429A640023FB7309E0A2
:1047E000FB7B7A6808331B01134400221A60FB7BB1
:1047F0000133FB73FB7B0F2BF2D900BF1037BD4693
:1048000080BD00BFB44B02003C4E0200544B02007E
:1048100080B588B000AFF860B9607A607A681346F6
:104820009B0013445B00FB617B681D4A934206D9E1
:104830001C4B1D4A40F291111C48FDF77FFEFA699E
:10484000BB689A4206D91A4B174A40F2931117488F
:10485000FDF774FEFB69002B01D10123FB61BA68EF
:10486000FB69B2FBF3F3013BFB61FB69FF2B01D951
:10487000FF23FB61FB69DBB23B750323BB7502239E
:10488000FB7501233B7601237B7507F11403194661
:10489000F86800F0C9F800BF2037BD4680BD00BFF2
:1048A00040420F00D84B02004C4E0200544B020015
:1048B000F44B020080B586B000AFF860B9607A6052
:1048C000BB68002B06D13D4B3D4A40F2B7113D4835
:1048D000FDF734FEBB685B79002B03D0BB685B79C6
:1048E000102B06D9384B364A4FF4DC713548FDF7AA
:1048F00025FEF868FFF79CFE7861344B1846FFF7F9
:1049000051FE0021F868FFF769FEBB681B79002B98
:1049100004D1FB685B6823F4005303E0FB685B6829
:1049200043F40053FA6853600121F868FFF756FE1C
:10493000F868FFF7FFFEFB681B683B613B6923F0EB
:104940007F02BB685B79013B03F07F0313433B614C
:10495000BB689B79002B04D0FB685B6843F48053F1
:1049600003E0FB685B6823F48053FA685360BB681C
:10497000DB79002B03D03B6943F4800302E03B6901
:1049800023F480033B61BB681B7A002B03D03B6997
:1049900043F4803302E03B6923F480333B61FB68DE
:1049A0003A691A60BB681B681A467968F868FFF7AD
:1049B0002FFF00BF1837BD4680BD00BF104C02005E
:1049C000604E0200544B0200184C020004003C10E0
:1049D00080B582B000AF78607B68002B06D10E4BAB
:1049E0000E4A40F209210E48FDF7A8FD7B6800221F
:1049F0001A717B680B4A1A607B6810225A717B68B7
:104A000000229A717B680022DA717B6800221A7298
:104A100000BF0837BD4680BD104C0200704E02003A
:104A2000544B020048E8010080B582B000AF7860C6
:104A300039603B68002B06D11B4B1C4A4FF40771B1
:104A40001B48FDF77BFD7868FFF71CFE7B685A6802
:104A50004FF6F87313407A6853607B685A683B6876
:104A60001B7819063B685B789B0503F440031943E8
:104A70003B689B78DB0403F4601319433B68DB78E5
:104A80001B0403F4E02319433B681B7903F007037D
:104A90000B431A437B685A607868FFF70BFE00BF30
:104AA0000837BD4680BD00BF104C02008C4E02008E
:104AB000544B020080B582B000AF78600B46FB70AB
:104AC0001346BB70FA787B681B6803F07F039A4239
:104AD00006D9234B234A40F259212348FDF72EFDE6
:104AE000FB7819467868FFF7FDFD034683F0010364
:104AF000DBB2002B06D11D4B1A4A40F25A211A484C
:104B0000FDF71CFDBB78002B08D0FB787A680833D2
:104B10001B0113444FF000621A6006E0FB787A68CC
:104B200008331B01134400221A60FB787A680833AB
:104B30001B011344043300221A60FB787A681B01BE
:104B40001344883300221A60FB787A681B011344EF
:104B50008C3300221A6000BF0837BD4680BD00BFFD
:104B6000B04C0200A44E0200544B0200DC4C020088
:104B700080B586B000AFF8607A601A460B46FB72CB
:104B80001346BB72FA7AFB681B6803F07F039A42F4
:104B900006D9384B384A40F26F213848FDF7CEFC31
:104BA0007B68002B09D1BB7A002B06D0344B324AEC
:104BB0004FF41C713148FDF7C1FCFB7A1946F868C7
:104BC000FFF790FD034683F00103DBB2002B06D113
:104BD0002C4B294A40F271212848FDF7AFFC0023F5
:104BE0007B61FB7AFA6808331B01134400221A60C8
:104BF000FB7AFA6808331B011344043300221A605D
:104C0000FB7AFA681B011344883300221A60FB7A8E
:104C1000FA681B0113448C3300221A60BB7A002B04
:104C200023D0FB7A7A681268F96808331B010B44B9
:104C300004331A607B681B79012B03D17B6943F431
:104C400000137B617B685B79012B03D17B6943F4A3
:104C500080137B617B6943F080637B61FB7AFA6838
:104C600008331B0113447A691A6000BF1837BD4628
:104C700080BD00BFB04C0200BC4E0200544B02008D
:104C8000004D0200DC4C020080B588B000AFF86037
:104C9000B9601346FB71BB68002B09D1FB79002B6F
:104CA00006D0894B894A40F297218948FDF746FC96
:104CB000FB68E033BB610023BB77F868FFF7E2FCD9
:104CC000FB79002B43D0BB681B79802B06D9814B25
:104CD0007E4A40F2A1217E48FDF730FCFB681B684C
:104CE000DBB203F07F03FB75FB7D102B28BF102385
:104CF000FB750023FB7726E0FB7F0133DB00BA68FE
:104D0000127993421CDBFB7FBB77FB7DA3F108028A
:104D1000BB7F5B00D31A002B06DC6F4B6B4A40F263
:104D2000AF216B48FDF70AFCFB685B6B23F07062F8
:104D3000BB7F1B0603F070631A43FB685A630CE0E9
:104D4000FB7F0133FB77FB7F0F2BD5D905E0FB6899
:104D50005B6B03F070631B0EBB77BB7F0133DBB271
:104D6000DB00BB770023FB7708E0FB7F9B00BA6981
:104D7000134400221A60FB7F0133FB77FA7FBB7F6D
:104D80009A42F2D3FB79002B6DD0BB681B79FB777D
:104D900009E0FB7F9B00BA6913444FF0FF321A60B1
:104DA000FB7F0133FB77FA7FBB7F9A42F1D300236D
:104DB000FB770DE0FB7F9B00BA691344BA6811686A
:104DC000FA7F92000A4412681A60FB7F0133FB7776
:104DD000BB681B79FA7F9A42ECD3BB685B79032BE3
:104DE0002AD801A252F823F0F94D0000074E000026
:104DF000194E00002B4E0000FB681B6823F4407224
:104E0000FB681A6019E0FB681B6823F4407343F4E5
:104E10008072FB681A6010E0FB681B6823F4407323
:104E200043F40072FB681A6007E0FB681B6843F4F8
:104E30004072FB681A6000E000BFBB689B79012BE1
:104E400004D1FB685B6B23F4802303E0FB685B6B9E
:104E500043F48023FA685363FB681B6843F00052F5
:104E6000FB681A6029E0FB681B6823F00052FB68AE
:104E70001A60002300220021F868FFF779FE002362
:104E800000220121F868FFF773FE002300220221AF
:104E9000F868FFF76DFE002300220321F868FFF792
:104EA00067FE002300220421F868FFF761FE00235B
:104EB00000220521F868FFF75BFEF868FFF7FAFBB0
:104EC00000BF2037BD4680BD204D0200D44E0200F9
:104ED000544B0200404D02005C4D020080B586B08C
:104EE00000AFF8600B467A60FB72FA7AFB681B68C9
:104EF00003F07F039A4206D94D4B4E4A4FF4477157
:104F00004D48FDF71BFB7B68002B06D14B4B494AF4
:104F100040F21D314848FDF711FB7B689B78C3F3D5
:104F20000303DBB2082B06DD454B424A40F21E313B
:104F30004148FDF703FBFB7A1946F868FFF7D2FBFF
:104F4000034683F00103DBB2002B06D13D4B394A07
:104F500040F21F313848FDF7F1FA00237B61FB7AFC
:104F6000FA6808331B0113441B6803F07063B3F144
:104F7000406F57D0FB7AFA7AF968083212010A4476
:104F8000126822F0706242F00062F96808331B0177
:104F90000B441A60FB7A7A685268C2F31C0211460D
:104FA000FA6808331B011344043319607B689B784B
:104FB00003F02003DBB2002B03D07B6943F4C00372
:104FC0007B617B689B7803F01003DBB2002B03D07E
:104FD0007B6943F480137B617B689B78C3F3030395
:104FE000DBB21B0403F470227B69134343F040637C
:104FF0007B61FB7A7A689268F9681B010B448833FD
:105000001A60FB7A7A68D268F9681B010B448C330A
:105010001A60FB7AFA6808331B0113447A691A6034
:10502000002300E0012318461837BD4680BD00BFAD
:10503000B04C0200EC4E0200544B0200804D0200C6
:10504000884D0200DC4C020080B584B000AF78606F
:1050500039603B68002B06D12E4B2F4A40F2893134
:105060002E48FDF76BFA7B681B6803F00053002B9A
:105070004BD07B68D3F88030FB607B68D3F88430FA
:1050800023F060413A68536861F31C035360FB6886
:1050900003F40013002B14BF01230023D9B23A6894
:1050A000937861F345139370FB6803F48013002B2E
:1050B00014BF01230023D9B23A68937861F3041333
:1050C0009370FB681B0CDBB203F00F03D9B23A6894
:1050D000937861F3030393707B68D3F888203B686F
:1050E0009A607B68D3F88C203B68DA607B68DB6C65
:1050F000DBB2C3F3080399B23A68538861F3CF1364
:1051000053807B689B68002300E00123184610371A
:10511000BD4680BDA04D0200004F0200544B02006E
:1051200080B500AF094B1B68002B06D1084B094A1C
:1051300040F23C510848FDF701FA084B1B68034A4E
:10514000126811460648984700BF80BD3003002012
:10515000144E0200144F0200544B0200340300208E
:105160000040024080B485B000AF78607B681B0CC3
:1051700003F1804303F58E23FB60FB68FA68116836
:105180007A6892B2012000FA02F20A431A6000BF64
:105190001437BD465DF8047B704700BF80B584B00E
:1051A00000AF78600423BB600023FB6009E00F4A76
:1051B000FB6852F823207B689A4207D0FB680133D2
:1051C000FB60FA68BB689A42F1D300E000BFFA685E
:1051D000BB689A4205D3064B064A61210648FDF793
:1051E000ADF9FB6818461037BD4680BD2C4F020054
:1051F0004C4F020000500200684F020080B487B09C
:1052000000AF786039600023FB7500233B61002309
:10521000FB607B689B6DFB60FB6843F00803FB60F1
:105220007B685B6E3B610023FB750BE0FB7DDB0065
:105230000533012202FA03F33A6913433B61FB7D14
:105240000133FB75FA7D7B682F498B4213D07B6855
:105250002E498B420DD07B682D498B4207D07B684D
:105260002C498B4201D1042306E0002304E00123F2
:1052700002E0012300E004239A42D7DB7B683A690D
:105280005A667B68D3F88C303B613B6943F0B403CA
:105290003B613B6803F08003002B03D03B6943F480
:1052A000F8533B613B6803F07003002B1ED03B6951
:1052B00043F4F8133B613B6803F01003002B03D069
:1052C000FB6843F01003FB603B6803F02003002BF6
:1052D00003D0FB6843F02003FB603B6803F040030E
:1052E000002B03D0FB6843F04003FB607B68FA6847
:1052F0009A657B683A69C3F88C2000BF1C37BD46AD
:105300005DF8047B704700BF0080034000900340BD
:1053100000A0034000900B4080B485B000AF7860DF
:1053200039600023FB600023BB607B68D3F88C30BE
:1053300043F004027B68C3F88C207B685B6EBB6023
:105340000023FB600BE0FB68DB000533012202FA5F
:1053500003F3BA681343BB60FB680133FB607B68EF
:10536000464A934213D07B68454A93420DD07B68EE
:10537000444A934207D07B68434A934201D10423B5
:1053800006E0002304E0012302E0012300E00423FF
:10539000FA689342D7D87B68BA685A667B68D3F8B4
:1053A0009830BB607B68354A934216D07B68344A9C
:1053B00093420FD07B68334A934208D07B68324ACD
:1053C000934202D16FF0FF0309E0002307E06FF082
:1053D000030304E06FF0030301E06FF0FF03BA681A
:1053E0001340BB607B68254A934214D07B68244AF3
:1053F00093420ED07B68234A934208D07B68224AAE
:10540000934201D1FF2307E04FF0FF3304E0032371
:1054100002E0032300E0FF233A681340BA68134315
:10542000BB607B68BA68C3F898207B689B6DBB60E3
:105430003B6803F48073002B04D0BB6843F0020385
:10544000BB6003E0BB6823F00203BB603B6803F46E
:105450000073002B04D0BB6843F00103BB6003E082
:10546000BB6823F00103BB607B68BA689A6500BF24
:105470001437BD465DF8047B704700BF00800340D1
:105480000090034000A0034000900B4080B584B022
:1054900000AF786039603B68002B05D1374B384A44
:1054A000DE213848FDF74AF83B685B6803F0F003FB
:1054B000002B01D101235DE07868FFF76FFE024603
:1054C000314B53F822301846FFF74CFE3B681B7BEC
:1054D0005B0103F0600343F005027B685A653B689B
:1054E0005B6819467868FFF789FE3B689B68194638
:1054F0007868FFF711FF3B681B7803F007027B68B1
:105500001A603B685B789B01DAB23B689B7E5B026A
:1055100003F400731A437B68C3F884203B681B7E46
:105520001A467B68DA653B685B7E1A467B681A67B9
:105530003B685A697B68DA663B689B7B9B01DAB201
:105540003B681B6903F03F031A437B689A667B68DC
:10555000DB6FFB60FB6823F47063FB603B685B7B85
:105560001B0203F47063FA681343FB607B68FA68FC
:10557000DA67002318461037BD4680BD804F020011
:1055800010500200684F02003C4F020080B582B00C
:1055900000AF78607B68002B06D1174B174A40F2AA
:1055A0002F111748FCF7CAFF7B6800221A707B682E
:1055B00000225A707B6880225A607B6800229A60C1
:1055C0007B6800221A737B6800225A737B68012271
:1055D0009A737B6800221A617B6800225A617B689B
:1055E00000221A767B6800225A767B6800229A761F
:1055F00000BF0837BD4680BD804F02001C5002002E
:10560000684F020080B58AB000AFF860B9601146FB
:105610001A460B46FB711346BB71BB68002B06D1C3
:10562000754B764A4FF4A9717548FCF787FF7B6B81
:10563000002B06D1734B714A40F253117048FCF7AE
:105640007DFF3B6B002B06D16F4B6C4A4FF4AA7168
:105650006B48FCF773FFFB79002B06D16B4B674A55
:1056600040F255116648FCF769FFFB681B6803F0C0
:1056700007037A6B22FA03F3BB61BB79012B10D0CD
:10568000022B01D0002B19D1FB681B6823F02002EC
:10569000FB681A60BA693B6BB2FBF3F3013B7B62B8
:1056A0000EE0FB681B6843F02002FB681A603B6B4E
:1056B0005B00BA69B2FBF3F37B6201E001232DE1E9
:1056C0007B6AB3F5803F01D3012327E1FB687A6A47
:1056D0009A600023FB771BE1BB689B78642B01D9A0
:1056E00001231BE1BB79002B02D0BB79012B41D1F7
:1056F000BB681B78FA680133DB0013445B687B618D
:105700007B6923F03C037B61BB685B789B001A4696
:105710007B6913437B617B6943F020037B61BB683A
:105720001B78FA680133DB0013447A695A60BB685E
:105730009B78002B02D100237B8412E0BB689B780E
:105740001A467B6A03FB02F3314AA2FB03235B097F
:105750007B847A8C7B6A9A4203D37B6A9BB2013347
:105760007B84BB681B787A8CF9680133DB000B44BF
:105770009A60C7E0BB681B781946FB68254A9342CC
:1057800013D0FB68244A93420DD0FB68234A93420E
:1057900007D0FB68224A934201D1042306E000238C
:1057A00004E0012302E0012300E00423994201DB2D
:1057B0000123B3E0BB68DB78642B01D90123ADE0A2
:1057C000BB68DB78002B02D100233B840AE0BB6876
:1057D000DB781A467B6A03FB02F30D4AA2FB032324
:1057E0005B093B84BB689B78002B1BD100237B8427
:1057F00000233B8429E000BF884F020034500200A0
:10580000684F0200944F0200A04F0200AC4F02000C
:105810001F85EB51008003400090034000A003402F
:1058200000900B40BB689B781A467B6A03FB02F32F
:105830003C4AA2FB03235B097B847A8C7B6A9A42F5
:1058400003D37B6A9BB201337B84BB681B785B000C
:10585000FA680133DB0013445B687B617B6923F0EA
:105860003C037B61BB685B789B001A467B691343F2
:105870007B61BB681B785B00FA680133DB00134473
:105880007A695A60BB681B785B000133FA680133A0
:10589000DB0013445B687B617B6923F03C037B6125
:1058A000BB685B789B001A467B6913437B61BB68CE
:1058B0001B785B000133FA680133DB0013447A691B
:1058C0005A60FB685A6EBB681B78DB00012101FA45
:1058D00003F31A43FB685A66BB681B785B003A8C7B
:1058E000F9680133DB000B449A60BB681B785B00EE
:1058F0000133398C7A8C0A441146FA680133DB0093
:1059000013449960BB680433BB60FB7F0133FB77B2
:10591000FA7FFB799A42FFF4DFAE0023184628375E
:10592000BD4680BD1F85EB5180B485B000AF786067
:10593000084611461A460346FB700B46BB701346D9
:105940007B700023BB817B689B687B81BB78002BCD
:1059500002D0BB78012B19D17B897A7802FB03F343
:105960002F4A82FB03125211DB17D31AFB81FA89EB
:105970007B899A4202D37B890133FB81FB78FA89C8
:1059800079680133DB000B449A6043E0FA787B6866
:1059900024498B4213D07B6823498B420DD07B680E
:1059A00022498B4207D07B6821498B4201D10423D5
:1059B00006E0002304E0012302E0012300E00423C9
:1059C0009A4226DA7B897A7802FB03F3144A82FB37
:1059D00003125211DB17D31AFB81FB785B007A6844
:1059E0000133DB0013449B68BB81FA897B899A42AF
:1059F00002D37B890133FB81FB785B000133B989DA
:105A0000FA890A4411467A680133DB00134499602D
:105A100000E000BF1437BD465DF8047B704700BF4F
:105A20001F85EB51008003400090034000A003401D
:105A300000900B4080B485B000AF78600B46FB70DF
:105A40001346BB70FB787A680133DB0013445B6854
:105A5000FB60FB6823F00C03FB60BB789B0003F04A
:105A60000C03FA681343FB60FB787A680133DB00B0
:105A70001344FA685A6000BF1437BD465DF8047BD2
:105A8000704700BF80B485B000AFF860B9601346BE
:105A9000FB71FB79002B05D10122BB689A40FB68A2
:105AA0009A6004E00122BB689A40FB685A6000BF1C
:105AB0001437BD465DF8047B704700BF80B584B0E5
:105AC00000AF78600023FB6009E00E4AFB6852F8E3
:105AD00023207B689A4206D0FB680133FB60FB6899
